:100000000C9471010C948E010C948E010C948E0151
:100010000C948E010C948E010C948E010C948E0124
:100020000C948E010C948E010C948E010C948E0114
:100030000C948E010C948E010C948E010C948E0104
:100040000C948E010C948E010C948E010C948E01F4
:100050000C948E010C943A090C9468090C948E014E
:100060000C948E010C948E010C948E010C948E01D4
:100070000C948E010C948E010C948E010C948E01C4
:100080000C948E010C948E010C948E010C948E01B4
:100090000C948E010C948E010C948E010C948E01A4
:1000A0000C948E010C948E010C948E01756E6B6E07
:1000B0006F776E20636F6D6D616E643A20006164CE
:1000C0006300706C617920006572726F72207379C1
:1000D0006E63696E67206469736B0A0073796E637F
:1000E000006572726F72206372656174696E672059
:1000F0006469726563746F72793A20006D6B64692C
:100100007220006572726F722077726974696E670F
:1001100020746F2066696C650A006572726F7220C8
:100120007365656B696E67206F6E20006572726F14
:1001300072206F70656E696E6720007772697465F2
:1001400020006572726F72206372656174696E67F8
:100150002066696C653A2000746F756368200065DD
:1001600072726F722064656C6574696E672066696F
:100170006C653A2000726D20006572726F72207299
:10018000656164696E67206469736B20696E666F70
:100190000A006469736B006572726F72206F70651C
:1001A0006E696E67200063617420006C730064697F
:1001B000726563746F7279206E6F7420666F756EEE
:1001C000643A200063642000696E6974006F706592
:1001D0006E696E6720726F6F7420646972656374F4
:1001E0006F7279206661696C65640A006F70656E74
:1001F000696E672066696C6573797374656D2066D6
:1002000061696C65640A006F70656E696E67207065
:100210006172746974696F6E206661696C65640AE5
:10022000004D4D432F534420696E697469616C69B8
:100230007A6174696F6E206661696C65640A006634
:100240007265653A20202000666F726D61743A20F5
:100250000077722E70722E3A2000636F70793A2008
:100260002020004D420A0073697A653A2020200060
:10027000646174653A2020200073657269616C3A8C
:10028000203078007265763A202020200070726F4E
:10029000643A202020006F656D3A20202020006DF8
:1002A000616E75663A20203078006572726F722038
:1002B0006F70656E696E672025730D0A00456E6468
:1002C000206F662066696C650D0A0042756666657A
:1002D00072696E67206572726F722025690D0A203F
:1002E000000011241FBECFEFDAE0DEBFCDBF11E06A
:1002F000A0E0B1E0E0E4F2E502C005900D92A23387
:10030000B107D9F718E0A2E3B1E001C01D92AC3704
:10031000B107E1F70E943E070C941E290C940000DF
:10032000EF92FF920F931F93CF93DF93EB018A011C
:1003300079010BC0C701B8010E94CA25009729F4B2
:10034000CE010E94491181E006C0CE01B7010E9492
:100350004B14882379F7DF91CF911F910F91FF9074
:10036000EF900895EF92FF920F931F93DF93CF9337
:10037000CDB7DEB7AD970FB6F894DEBF0FBECDBFD9
:100380008C017E010894E11CF11C97010E949001F0
:10039000882319F420E030E005C0C801B7010E94AD
:1003A000E91E9C01C901AD960FB6F894DEBF0FBEE1
:1003B000CDBFCF91DF911F910F91FF90EF900895E6
:1003C000CF92DF92EF92FF920F931F93CF93DF9321
:1003D000EC01162F60E070E0412F50E00E94B8253C
:1003E00000E0C12EDD240894C108D10823C00E947A
:1003F0001206182F883011F08F3789F40023D1F0BE
:100400000150FE01E00FF11D108288E00E941C06E1
:1004100080E20E941C0688E00E941C060BC00E941D
:100420001C06FE01EE0DFF1D1A3011F4108207C0EC
:1004300010830F5FE02EFF24EC14FD04C4F2802F24
:10044000DF91CF911F910F91FF90EF90DF90CF90B0
:1004500008950E947D0A80913301909134010097A4
:1004600011F00E94C80F1092320100D08DEB92E083
:10047000EDB7FEB7928381830E9469260F900F909B
:100480000895EF92FF920F931F93CF93DF93EC01A8
:100490008B017A0180913201882361F00E947D0AEC
:1004A0008091330190913401009711F00E94C80FA0
:1004B00010923201CE01B801A7010E94B2019C0145
:1004C0009093340180933301009789F400D000D0D9
:1004D0008AEA92E0EDB7FEB792838183F482E382E9
:1004E0000E9469260F900F900F900F9008C081E036
:1004F00080933201C90169E272E00E94880ADF91AB
:10050000CF911F910F91FF90EF9008952F923F92FE
:100510004F925F926F927F928F929F92AF92BF9213
:10052000CF92DF92EF92FF920F931F93DF93CF93BF
:10053000CDB7DEB7CD59D0400FB6F894DEBF0FBEB1
:10054000CDBF83B7817F83BF1092C80088E18093BD
:10055000C90086E08093CA00539A5A9A87E690E0D1
:100560009093CD008093CC0086E191E09093790840
:10057000809378084DE0442E512C4C0E5D1ECE0128
:1005800085599F4FC656DF4F99838883CA59D040FB
:10059000DE011596C456DF4FB983A883CC59D040ED
:1005A0000E943C24882319F481E292E048C08EE046
:1005B00093E26CEC73E24EE152E225ED34E200E0AE
:1005C0000E94BE1FC856DF4F99838883C859D04008
:1005D000892BB1F48EE093E26CEC73E24EE152E2CF
:1005E00025ED34E20FEF0E94BE1FC856DF4F9983FE
:1005F0008883C859D040892B19F487E092E01FC046
:10060000C856DF4F88819981C859D0400E945C1537
:100610004C01009719F48CEE91E011C08E01025C40
:100620001F4F60E071E0A8010E94251FC401B801BE
:100630000E94A81E3C01009729F48DEC91E00E94D5
:100640002D06AECF34E2232E8EE30E941C0680E2FC
:100650000E941C06C20168E10E94E0018823A1F308
:10066000C20168EC71E00E949825892B09F4C3C28D
:10067000C20164EC71E043E050E00E94A125892BA7
:1006800001F58889882301F3C401B301AE01405FFD
:100690005F4F9E0125593F4F0E949001882371F0C2
:1006A000C401BE0165597F4F0E94A81E8C010097AE
:1006B00029F0C3010E9443113801C6CF8EEA91E0B0
:1006C00082C1C2016BEA71E00E949825892BE1F199
:1006D00045C0C656DF4FE881F981CA59D040019024
:1006E0000020E9F78F0101501040C656DF4F888186
:1006F0009981CA59D040081B190BCE0185599F4FCB
:100700000E943B06C557DF4F8881CB58D04084FDFF
:1007100002C080E201C08FE2122D101B0E941C0655
:1007200004C080E20E941C0611501123D1F7C0576B
:10073000DF4F688179818A819B81C059D0400E94B6
:1007400048068AE00E941C06C301BE0165597F4F1E
:100750000E944B14882309F0BCCF76CFC20166EA11
:1007600071E044E050E00E94A125892B09F060C0AF
:100770008989882309F468CF8E010F5E1F4FC40159
:10078000B301A8010E94B2015C01009721F0CC24C2
:10079000DD2476013FC087E991E0E2C1C701B601DF
:1007A0000E9415078AE30E941C068E010B5F1F4FF3
:1007B00080E20E941C06D8018D918D010E94EF06F7
:1007C00004151505A9F780E20E941C068E010B5F37
:1007D0001F4FF8019081892F80528F3510F4892F97
:1007E00001C08EE20E941C060F5F1F4F802FC4566F
:1007F000DF4FF881CC59D0408F1B831550F38AE02E
:100800000E941C0688E090E0A0E0B0E0C80ED91E6F
:10081000EA1EFB1EC501BE016B5F7F4F48E050E042
:100820000E94CE0F382E882309F0B8CFC5015CC1D5
:10083000C20162E971E00E949825892B09F09FC0EE
:10084000CE0185960E940121882309F4E0C18FE939
:1008500092E00E942D068DA10E94EF068AE00E9480
:100860001C0686E992E00E942D06CE0186960E9423
:100870003B068AE00E941C068DE892E00E942D064D
:10088000CE0189960E943B068AE00E941C0684E8FD
:1008900092E00E942D068FA50E94EF068AE00E943A
:1008A0001C0689E792E00E942D0668A979A98AA909
:1008B0009BA90E9415078AE00E941C0680E792E02F
:1008C0000E942D068DA990E00E94B1068FE20E9441
:1008D0001C068CA990E00E94B1068AE00E941C06CA
:1008E00087E692E00E942D066EA97FA988AD99AD9A
:1008F00024E196958795779567952A95D1F70E947B
:10090000480683E692E00E942D068AE592E00E9466
:100910002D068AAD90E00E94B1068AE00E941C0676
:1009200081E592E00E942D068CAD90E00E94B10618
:100930008FE20E941C068BAD90E00E94B1068AE017
:100940000E941C0688E492E00E942D068DAD90E086
:100950000E94B1068AE00E941C068FE392E00E948A
:100960002D06C4010E9402130E9448068FE20E94D5
:100970001C06C4010E94C3120E94480638C1C2016D
:1009800065E771E043E050E00E94A125892B01F565
:100990008889882309F458CEC401B301AE01405FB1
:1009A0005F4F9E0125593F4F0E949001882349F0D7
:1009B000C401BE0165597F4F0E943D12882309F092
:1009C00043CE8FE591E00E942D06CE0140960DC1E9
:1009D000C20168E571E046E050E00E94A125892B44
:1009E000B9F48B89882309F42FCEC301BE016D5E53
:1009F0007F4FAE0145595F4F0E94BA1A882309F014
:100A000023CE82E491E00E942D06CE014396EDC0F4
:100A1000C2016BE371E046E050E00E94A125892B02
:100A200009F082C08B89882309F40ECE8E010D5EF9
:100A30001F4F02C00F5F1F4FD8018C91803219F0F9
:100A40008823C1F701CEF801108283E1C82ED12C92
:100A5000CC0EDD1EC401B301A6010E94B2017C01CF
:100A6000009729F020E030E040E050E01BC08CE22D
:100A700091E00E942D06C601B8C0CA01B9012AE062
:100A800030E040E050E00E9430259B01AC018D2D0C
:100A900090E0C097AA2797FDA095BA2F280F391F7D
:100AA0004A1F5B1FD8011196DC900F5F1F4F8D2DE1
:100AB00080538A3010F329833A834B835C83C701C8
:100AC000BE016F5F7F4F40E00E948E1C882379F447
:100AD0008AE191E00E942D06CE0143960E943B06DA
:100AE0008AE00E941C06C7010E94C80FADCD8CE3AE
:100AF0000E941C0680E20E941C06C20168E10E945E
:100B0000E001182F882379F3C701B201412F50E08B
:100B10000E94EC1C212F30E08217930741F383E001
:100B200091E00E942D06DFCFC2016CEF70E046E03D
:100B300050E00E94A125892BB9F48B89882309F400
:100B400083CD8E010D5E1F4FC301B801AE01455923
:100B50005F4F0E94E219882309F076CD81EE90E084
:100B60000E942D06C80141C0C2016CED70E00E94D8
:100B70009825892B41F40E94F422882309F064CD42
:100B800088EC90E046C0C20162EC70E045E050E0C5
:100B90000E94A125892B61F48A89882309F454CD08
:100BA000C401B301AE014E5E5F4F0E9441024CCDC5
:100BB000C2016EEB70E043E050E00E94A125892B5A
:100BC00079F48CE096E00E9463090E94240887E291
:100BD00094E067E276E040E052E00E94D80734CD2E
:100BE0008CEA90E00E942D06C2010E943B068AE03A
:100BF0000E941C0629CDC4010E94AC0CC856DF4FD0
:100C000088819981C859D0400E94B61FC9CC89E714
:100C100091E00E942D0618CD82E490E00E948F267C
:100C20000895089580917808909179080E94FB2595
:100C30008D3009F48AE008951F93182F8A3019F433
:100C40008DE00E941C066091780870917908812FD0
:100C500090E00E943D261F910895CF93DF93EC0111
:100C6000FE0121968491882319F00E941C06F8CF7A
:100C7000DF91CF910895CF93DF93EC0103C02196CC
:100C80000E941C0688818823D1F7DF91CF910895B7
:100C90004F925F926F927F928F929F92AF92BF928C
:100CA000CF92DF92EF92FF920F931F93CF93DF9338
:100CB0005B016C01E12C8AECF82E8AE9082F8BE3AA
:100CC000182F4424C0E0D0E0C601B501A801970167
:100CD0000E947625922E222341F4442031F481E0B3
:100CE000E816F1040105110531F4892D805D0E949B
:100CF0001C0644244394C801B7012AE030E040E0D8
:100D000050E00E947625822E732E642E552E219659
:100D1000CA30D105A9F0692D70E080E090E0A8010B
:100D200097010E943025A61AB70AC80AD90A282DA9
:100D3000372D462D552DC901DA017C018D01C4CF17
:100D4000DF91CF911F910F91FF90EF90DF90CF90A7
:100D5000BF90AF909F908F907F906F905F904F90DB
:100D60000895CF92DF92FF920F931F93CF93DF935B
:100D70006C01C0E1D7E240E000E010E0C601BE0136
:100D80000E944F25F62E662329F4442319F4C1301E
:100D9000D10529F48F2D805D0E941C0641E0CE0113
:100DA0006AE070E00E944F250F5F1F4F053011056C
:100DB00071F08F2D90E09C012C9FC0012D9F900D14
:100DC0003C9F900D1124C81AD90AEB01D7CFDF91AF
:100DD000CF911F910F91FF90DF90CF9008951F93B7
:100DE000182F82958F708A3010F4805D01C0895A67
:100DF0000E941C06812F90E08F709070212F2F7021
:100E00000A971CF4822F805D02C0822F895A0E94AB
:100E10001C061F9108951F93182F892F0E94EF061B
:100E2000812F0E94EF061F910895EF92FF920F937A
:100E30001F937B018C01C801AA27BB270E940B07C7
:100E4000C7010E940B071F910F91FF90EF9008952B
:100E500084B7877F84BF88E10FB6F89480936000E1
:100E6000109260000FBE80E090E020E80FB6F8948A
:100E700020936100809361000FBE089584B7877F3F
:100E800084BF88E10FB6F8948093600010926000F0
:100E90000FBE80E090E020E80FB6F8942093610048
:100EA000809361000FBE0E94860280E090E008956A
:100EB00020EA3FE004C0F9013197F1F7019700976C
:100EC000D1F7089535E004C0232F2A95F1F7019753
:100ED0000097D1F70895EEE6F0E080818D7F808362
:100EE0000895EEE6F0E0808182608083089580912D
:100EF0007A00806480937A0080917A0086FDFCCF2E
:100F000080917A00806180937A0080917800E091EE
:100F10003801F09139018193F0933901E093380160
:100F200080913A0190913B01E817F90790F1809187
:100F30003701805F80931E04805190916E00946011
:100F400090936E0091E0892780933701882389F080
:100F50008091230490912404909339018093380167
:100F6000809125049091260490933B0180933A014F
:100F7000089580911F0490912004909339018093EB
:100F80003801809121049091220490933B01809339
:100F90003A010895EEE6F0E01082808187BD87B5C2
:100FA00085BD85B584BD80E090E00E943509089537
:100FB0009093200480931F049C01240F351F3093CD
:100FC0002204209321047093240460932304640F6B
:100FD000751F709326046093250410923701909337
:100FE00039018093380130933B0120933A011092EC
:100FF0001E0487E797E00E94350922E024BD809116
:1010000035019091360136E58232930759F03CEA7A
:101010008434930721F080589E4351F406C025BDC7
:101020008CE208C025BD8AE505C025BD8CE702C05D
:1010300025BD89EF87BD81E088BD80916E00866007
:1010400080936E007894089580E49FE19093360138
:101050008093350187E880937A00ECE7F0E08081A7
:10106000806680838098EEE7F0E0808181608083F5
:1010700088E0EFE1F4E0DF011D928A95E9F7109234
:10108000370110923901109238010895EEE6F0E030
:1010900080818D7F80830895EEE6F0E0808182601C
:1010A00080830895A0914001B0914101FD0191918B
:1010B000F0934101E09340019093CF0080913E0175
:1010C000813051F411968C918093D0003196F09339
:1010D0004101E093400102C09093D0002091400173
:1010E00030914101809142019091430128173907C5
:1010F00090F180913F01805F80932F088051909103
:101100006E00946090936E0091E0892780933F0178
:10111000882389F080912B0890912C0890934101AD
:101120008093400180912D0890912E089093430167
:101130008093420108958091270890912808909308
:101140004101809340018091290890912A08909351
:101150004301809342010895EEE6F0E01082808121
:1011600087BD87B585BD85B584BD80E090E00E94D0
:101170003509089590932808809327089C01240F2F
:10118000351F30932A082093290870932C08609308
:101190002B08640F751F70932E0860932D08109212
:1011A0003F0190934101809340013093430120938C
:1011B000420110922F0882E598E00E94350922E052
:1011C00024BD80913C0190913D0136E58232930728
:1011D00059F03CEA8434930721F080589E4351F43F
:1011E00006C025BD8CE208C025BD8AE505C025BD29
:1011F0008CE702C025BD89EF87BD81E088BD809165
:101200006E00866080936E007894089590933D01FF
:1012100080933C0160933E0184E082BF82E089BDFF
:1012200009B400FEFDCF82B7806182BF82E4809363
:10123000C00081E08093C1001092CF003F9A80915E
:10124000C00081628093C0001092D000269A88E08E
:10125000E7E2F8E0DF011D928A95E9F710923F017D
:10126000109241011092400108959093450180939E
:10127000440108951F920F920FB60F9211242F93DD
:101280003F934F935F936F937F938F939F93AF930E
:10129000BF93EF93FF93E0914401F09145013097A4
:1012A00009F00995FF91EF91BF91AF919F918F91B7
:1012B0007F916F915F914F913F912F910F900FBE52
:1012C0000F901F90189590934701809346010895C1
:1012D0001F920F920FB60F9211242F933F934F93AB
:1012E0005F936F937F938F939F93AF93BF93EF938E
:1012F000FF9380916E008B7F80936E007894E091D5
:101300004601F0914701309709F00995FF91EF915F
:10131000BF91AF919F918F917F916F915F914F910D
:101320003F912F910F900FBE0F901F901895CF9265
:10133000DF92EF92FF920F931F93CF93DF938091F1
:101340002F08882309F4CAC0C0907008D090710893
:10135000C114D10409F4C2C080912F08082F10E0F5
:1013600001701070102F0027110F095D1B4F809125
:101370007208813009F09BC0E80180E1E82EF12C71
:10138000C60160E378E040E450E00E94CE0F803474
:1013900091050CF488C08091310880588883809131
:1013A0003308805889838091350880588A838091DA
:1013B000370880588B838091390880588C838091BE
:1013C0003B0880588D8380913D0880588E838091A2
:1013D0003F0880588F83809141088058888780918A
:1013E0004308805889878091450880588A87809172
:1013F000470880588B878091490880588C87809156
:101400004B0880588D8780914D0880588E87809139
:101410004F0880588F87809151088058888B809121
:1014200053088058898B8091550880588A8B809109
:10143000570880588B8B8091590880588C8B8091ED
:101440005B0880588D8B80915D0880588E8B8091D1
:101450005F0880588F8B809161088058888F8091B9
:1014600063088058898F8091650880588A8F8091A1
:10147000670880588B8F8091690880588C8F809185
:101480006B0880588D8F80916D0880588E8F809169
:101490006F0880588F8FA0960894E108F108E11436
:1014A000F10409F06DCFCE01801B910B06C0C6017F
:1014B000B80140E052E00E94CE0F8050924060F4AC
:1014C0000E94AC0881E080937308E0917408F09169
:1014D0007508309709F0099510922F08DF91CF9188
:1014E0001F910F91FF90EF90DF90CF9008950E9491
:1014F0004C0808950E94460808950E94AC0880E0B8
:1015000090E00E946309109271081092700808958B
:10151000EF92FF920F931F93DF93CF93CDB7DEB778
:1015200060970FB6F894DEBF0FBECDBF8C019093CD
:101530007108809370081092730870937508609317
:101540007408BE016B5F7F4F0E94B70B2D853E85EF
:101550008EE32038380799F0EEE321383E0728F46F
:10156000FFE120343F0749F40AC086E522323807FC
:1015700031F0ECEA24343E0711F020E43FE19F858E
:101580008889803121F481E08093720802C0109232
:10159000720860E0923009F461E0C9010E94060916
:1015A0008D819E81AF81B88589839A83AB83BC830B
:1015B000C801BE016F5F7F4F40E00E948E1CE0902B
:1015C0007008F090710880917208813009F099C01C
:1015D00007E214E0C70160E378E040E450E00E94D5
:1015E000CE0F803491050CF488C08091310880586A
:1015F000F801808380913308805881838091350879
:10160000805882838091370880588383809139087D
:101610008058848380913B088058858380913D0861
:101620008058868380913F08805887838091410845
:101630008058808780914308805881878091450831
:101640008058828780914708805883878091490815
:101650008058848780914B088058858780914D08F9
:101660008058868780914F088058878780915108DD
:101670008058808B809153088058818B80915508C9
:101680008058828B809157088058838B80915908AD
:101690008058848B80915B088058858B80915D0891
:1016A0008058868B80915F088058878B8091610875
:1016B0008058808F809163088058818F8091650861
:1016C0008058828F809167088058838F8091690845
:1016D0008058848F80916B088058858F80916D0829
:1016E0008058868F80916F088058878F005E1F4FCB
:1016F000F8E007321F0709F06DCF980127523440F8
:1017000008C0C70167E274E040E054E00E94CE0FD9
:101710009C0184E02030380788F400D000D08BECA6
:1017200092E0EDB7FEB792838183348323830E94D6
:1017300069260F900F900F900F900CC087E999E0E9
:101740000E94630987E294E067E276E040E052E0BD
:101750000E94BA0860960FB6F894DEBF0FBECDBFE8
:10176000CF91DF911F910F91FF90EF9008958F928D
:101770009F92AF92BF92CF92DF92EF92FF920F9320
:101780001F93DF93CF93CDB7DEB72F970FB6F894A3
:10179000DEBF0FBECDBF8C015B016115710511F479
:1017A00081E0B5C01F82188619861A869BE0C92E73
:1017B000D12CCC0EDD1E85E0F60111928A95E9F759
:1017C000C801BE01695F7F4F40E00E948E1CC801C6
:1017D000B60144E050E00E94CE0FC60162E071E025
:1017E00044E050E00E94D325009709F08FC083E0C9
:1017F000882E912C8C0E9D1EC801B40144E050E04F
:101800000E94CE0FC801B60144E050E00E94CE0F06
:10181000C60167E071E044E050E00E94D3250097E4
:1018200011F083E074C0C801B60144E050E00E94AA
:10183000CE0FC6016CE071E044E050E00E94D32579
:10184000009709F063C0C801B40144E050E00E9471
:10185000CE0F7E010894E11CF11CC801B70142E0E3
:1018600050E00E94CE0F89819A81019711F084E0A7
:101870004EC0C801B70142E050E00E94CE0F8981FE
:10188000F5018287C801B40144E050E00E94CE0F08
:101890008B819C81F50191878087C801B40144E068
:1018A00050E00E94CE0FC801B70142E050E00E9414
:1018B000CE0FC801B70142E050E00E94CE0F8981EF
:1018C000F5018387C801B60144E050E00E94CE0FC5
:1018D000C60161E171E044E050E00E94D325009729
:1018E000A9F4C801B40144E050E00E94CE0F8B81FE
:1018F0009C81AD81BE81F50184839583A683B783E6
:10190000C801B5010E94321180E001C082E02F962B
:101910000FB6F894DEBF0FBECDBFCF91DF911F9100
:101920000F91FF90EF90DF90CF90BF90AF909F907E
:101930008F900895982F8091C80085FFFCCF9093D9
:10194000CE0080E090E008958091C80087FFFCCF32
:101950008091CE0090E00895FC01009711F0118273
:10196000108208950F931F93DF93CF9300D000D080
:1019700000D0CDB7DEB7DC01009709F488C0423053
:1019800051056105710508F482C0ED91FC91119734
:10199000808516960D911D912D913C91199701907E
:1019A000F081E02D8B30D9F592E0440F551F661F72
:1019B000771F9A95D1F7040F151F261F371FC901EE
:1019C000B801AE014D5F5F4F24E030E009958823F8
:1019D00009F45DC02B813C814D815E81211531056B
:1019E0004105510509F457C0273F8FEF38078FEFA6
:1019F00048078FE0580709F44AC0DA01C901805F3F
:101A00009F4FAF4FBF400797A105B10508F43FC0F6
:101A1000DA01C901885F9F4FAF4FBF4034C0440F08
:101A2000551F661F771F040F151F261F371FC9017B
:101A3000B801AE014F5F5F4F22E030E00995882387
:101A400031F189819A819C0140E050E021153105F6
:101A50004105510501F1273F8FEF380780E0480726
:101A600080E05807A1F0DA01C901805F9F4FA040D4
:101A7000B0400797A105B10550F0DA01C901885FB0
:101A80009F4FA040B0400897A105B10520F420E089
:101A900030E040E050E0B901CA0126960FB6F89454
:101AA000DEBF0FBECDBFCF91DF911F910F91089583
:101AB0002F923F924F925F926F927F928F929F925E
:101AC000AF92BF92CF92DF92EF92FF920F931F934C
:101AD000DF93CF9300D000D000D0CDB7DEB74C015C
:101AE000009709F4B2C0423051056105710508F450
:101AF000ACC0DC0116964D905D906D907C9019976E
:101B0000ED91FC9180858B3009F05CC0E3E02E2ED6
:101B1000312C2C0E3D1E5A016B0132E0AA0CBB1C6D
:101B2000CC1CDD1C3A95D1F7A40CB51CC61CD71CE7
:101B3000D401ED91FC910190F081E02DC601B50139
:101B4000A10124E030E00995882309F47EC0EB80F0
:101B5000FC800D811E81E114F1040105110509F4D9
:101B600076C0D801C701805F9F4FAF4FBF40089735
:101B7000A105B10508F469C0D801C701885F9F4F6E
:101B8000AF4FBF400897A105B10518F4EE24FF241C
:101B900087011B821C821D821E82D401ED91FC9163
:101BA0000480F581E02DC601B501A10124E030E0FB
:101BB0000995B801A701E114F1040105110509F027
:101BC000AACF45C05E010894A11CB11C7A018B010B
:101BD000EE0CFF1C001F111FE40CF51C061D171D49
:101BE000D401ED91FC910190F081E02DC801B70185
:101BF000A50122E030E00995882339F1C980DA8017
:101C0000C114D10421F1C60140960897F0F0B8EF55
:101C1000CB16BFEFDB0610F0CC24DD241A8219822C
:101C2000D401ED91FC910480F581E02DC801B7014C
:101C3000A50122E030E00995A60160E070E04115C1
:101C400051056105710511F602C080E001C081E017
:101C500026960FB6F894DEBF0FBECDBFCF91DF91B1
:101C60001F910F91FF90EF90DF90CF90BF90AF90BA
:101C70009F908F907F906F905F904F903F902F90AC
:101C800008952F923F924F925F926F927F928F9220
:101C90009F92AF92BF92CF92DF92EF92FF920F93FB
:101CA0001F93DF93CF93CDB7DEB76D970FB6F89440
:101CB000DEBF0FBECDBF9D8F8C8F3A014B01B901A6
:101CC000009709F444C1DC01ED91FC91119720814A
:101CD00031813B8F2A8F44815581598F488F1696C9
:101CE000AD90BD90CD90DC9019971F8680858B308C
:101CF00011F451E05F87EC8DFD8D82859385A4857D
:101D0000B585FF85FF2351F09C01AD0192E056950A
:101D10004795379527959A95D1F706C09C01AD0157
:101D20005695479537952795288B398B4A8B5B8B32
:101D3000D601C5010896A11DB11D8B879C87AD8773
:101D4000BE87A60195012C5F3F4F4F4F5F4F2F83FA
:101D5000388749875A87C801DB018C8B9D8BAE8BF6
:101D6000BF8BEE24FF248701B2E02B2E312C412CB7
:101D7000512C9AC03F85332381F06B857C858D85FE
:101D80009E85AE014D5F5F4F24E030E0AA8DBB8D94
:101D9000FD0109958823B1F4DAC06F8178858985C2
:101DA0009A85AE014F5F5F4F22E030E0EA8DFB8DF8
:101DB0000995882309F4CBC089819A81892B09F080
:101DC00057C025C08B819C81AD81BE810097A10544
:101DD000B10509F04DC0E114F1040105110549F404
:101DE0002FEF3FEF4FEF5FE02B833C834D835E830C
:101DF00004C0EB82FC820D831E836B857C858D8500
:101E00009E85AE014D5F5F4F24E030E015C0E114C8
:101E1000F1040105110529F4EFEFFFEFFA83E983DF
:101E200002C0FA82E9826F81788589859A85AE0140
:101E30004F5F5F4F22E030E0A88DB98DFD0109951D
:101E40008823E1F12C893D894E895F8921503040FA
:101E5000404050402C8B3D8B4E8B5F8B21153105C4
:101E60004105510519F48201710131C082017101EE
:101E70000894211C311C411C511C8B859C85AD850F
:101E8000BE850496A11DB11D8B879C87AD87BE873B
:101E90002F81388549855A852E5F3F4F4F4F5F4FC1
:101EA0002F83388749875A8788899989AA89BB8966
:101EB000281639064A065B0608F45CCF2C893D8952
:101EC0004E895F892115310541055105D1F532E073
:101ED0006316710481049104E8F14F854423D9F01D
:101EE000EB82FC820D831E83A2E0660C771C881CAB
:101EF000991CAA95D1F7A60CB71CC81CD91CC60101
:101F0000B501AE014D5F5F4F24E030E0A88DB98D83
:101F1000FD01099514C0FA82E982660C771C881CC1
:101F2000991CA60CB71CC81CD91CC601B501AE0172
:101F30004F5F5F4F22E030E0E88DF98D09958823EF
:101F400049F48C8D9D8DB801A7010E94580DEE2497
:101F5000FF248701B701C8016D960FB6F894DEBF64
:101F60000FBECDBFCF91DF911F910F91FF90EF90EA
:101F7000DF90CF90BF90AF909F908F907F906F90A9
:101F80005F904F903F902F90089580E190E00895EA
:101F9000FC01009711F01182108208952F923F9258
:101FA0004F925F926F927F928F929F92AF92BF9269
:101FB000CF92DF92EF92FF920F931F93DF93CF9315
:101FC000CDB7DEB72C970FB6F894DEBF0FBECDBFEE
:101FD0009C838B837E836D8358874F83009709F49E
:101FE00022C1672B09F41FC1452B09F41CC1DC0178
:101FF0009F966D907D908D909C90D29797962D9105
:102000003D914D915C919A97EF81F885CF01A0E0C9
:10201000B0E0860D971DA81DB91D281739074A077E
:102020005B0740F4B9016619770978876F83672BDE
:1020300009F4FCC0AB81BC81ED91FC911197208922
:1020400031893A832983D396AD90BD90CD90DC90B1
:10205000D697A114B104C104D10409F047C09396E6
:10206000AD90BD90CD90DC909697A114B104C104C1
:10207000D10439F4611471048104910409F4D6C0C7
:10208000D2C0611471048104910481F1840173014F
:1020900069817A811B014424552488279927DC0112
:1020A00082199309A409B50989879A87AB87BC87E8
:1020B00018C0AB81BC818D919C91B601A5010E9495
:1020C000B20C5B016C01611571058105910509F484
:1020D000AAC069857A858B859C85E60EF71E081F48
:1020E000191FE214F3040405150518F789819A8174
:1020F00001974C018620972001969A838983EF806F
:10210000F884AB81BC816D907C9061147104F9F00E
:10211000B2E0AB16B104C104D104C8F0C601B501E8
:102120006250704080409040F3012089318940E046
:1021300050E00E9430259B01AC01F3018289938914
:10214000A489B589280F391F4A1F5B1F04C020E0EE
:1021500030E040E050E009811A8108191909E016C1
:10216000F10608F48701D301ED91FC91C401A0E0D0
:10217000B0E0280F391F4A1F5B1F0190F081E02D4E
:10218000CA01B9014D815E8198010995882389F1C1
:10219000E01AF10AC801A0E0B0E0EB81FC8127A5BC
:1021A00030A941A952A9280F391F4A1F5B1FDF011F
:1021B00027A730AB41AB52ABC801880D991DE9810F
:1021C000FA818E179F07E0F08D919C91B601A501D1
:1021D0000E94B20C5B016C016115710581059105CE
:1021E00069F4AB81BC81D3961D921D921D921C9205
:1021F000D6974F8158854E195F091AC088249924B3
:10220000EB81FC81A3AAB4AAC5AAD6AAE114F10461
:1022100039F02D813E81200F311F3E832D8371CFF8
:102220004F81588505C04FEF5FEF02C040E050E09E
:10223000CA012C960FB6F894DEBF0FBECDBFCF916A
:10224000DF911F910F91FF90EF90DF90CF90BF90A3
:10225000AF909F908F907F906F905F904F903F9046
:102260002F900895DC01FB016115710551F09F96D7
:102270008D919D910D90BC91A02D80839183A2831F
:10228000B38381E00895FC01009711F01182108260
:102290000895FC01009711F480E0089583A194A1B2
:1022A000A5A1B6A187A790ABA1ABB2AB14AA13AA04
:1022B00081E00895CF92DF92EF92FF920F931F93E8
:1022C000CF93DF938C016A017B01B901D901CD91D4
:1022D000DC91119712968D919C911397809613968D
:1022E0009C938E931297F8018081853E09F4B9C0C2
:1022F000882309F4B6C089A59AA5ABA5BCA500970B
:10230000A105B10521F4C9A6DAA6EBA6FCA6209783
:1023100009F4A9C00115110509F4A5C0D8019C91C3
:10232000992309F4A0C01B968C918F3029F5892F31
:1023300090E08F7390702DE030E0829FA001839F2A
:10234000500D929F500D11244D505040A4E2B1E029
:10235000C40FD51F0DC08D91F801E80FF11D8081CC
:1023600089934F5F5F4FE1E0A133BE0709F479C065
:102370004F31510580F375C08881882309F04EC024
:10238000A801DE01780120E0F70190819032A1F0F0
:102390009C93F801848583FF08C0F7018081813414
:1023A00020F08B3510F4905E9C932F5F0894E11C15
:1023B000F11C1196283041F78881853011F485EEA3
:1023C0008883D80118968C91803221F1FE01E20FAA
:1023D000F11D8EE28083322F3F5F2C5FFA019085E2
:1023E0009032B9F0FE01E30FF11D9083D8011C96E5
:1023F0008C9184FF09C0DA0118968C91813420F009
:102400008B3510F4905E90833F5F4F5F5F4F3217C4
:1024100029F7232FFE01E20FF11D1082F8018385B9
:1024200088A3228D338D40E050E084899589A0E017
:10243000B0E0DC0199278827822B932BA42BB52BA6
:1024400089A39AA3ABA3BCA3848D958DA68DB78DCC
:102450008DA39EA3AFA3B8A781E0DB0114968C9354
:1024600002C081E001C080E0DF91CF911F910F9108
:10247000FF90EF90DF90CF9008957F928F929F9280
:10248000AF92BF92CF92DF92EF92FF920F931F9382
:10249000DF93CF93CDB7DEB72C970FB6F894DEBF9E
:1024A0000FBECDBF6C015B01009709F457C06115E9
:1024B000710509F453C0DB019996ED90FD900D91E3
:1024C0001C919C97E114F1040105110509F446C023
:1024D0004E010894811C911C85EE782ED601ED9159
:1024E000FC910190F081E02DC801B701A4012CE01E
:1024F00030E00995882391F17982D601ED91FC9124
:102500000480F581E02DC801B701A4012CE030E082
:102510000995882319F18C858F3049F480E290E089
:10252000A0E0B0E0E80EF91E0A1F1B1FD7CFD501AF
:1025300091964D915D916D917C91949741155105C6
:102540006105710539F0C6010E94580D20E030E0A8
:10255000882311F021E030E0822F01C080E02C962A
:102560000FB6F894DEBF0FBECDBFCF91DF911F91A4
:102570000F91FF90EF90DF90CF90BF90AF909F9022
:102580008F907F900895EF92FF920F931F93DC013D
:10259000009729F420E030E040E050E02CC0ED91BD
:1025A000FC91119780851A96ED90FD900D911C91EC
:1025B0001D9750962D913C9151978B3041F442E0FC
:1025C00016950795F794E7944A95D1F704C01695A8
:1025D0000795F794E7948EEF9FEFAFEFBFEFE80E0C
:1025E000F91E0A1F1B1F40E050E0C801B7010E94FE
:1025F00030259B01AC01B901CA011F910F91FF90D9
:10260000EF9008952F923F924F925F926F927F9238
:102610008F929F92AF92BF92CF92DF92EF92FF92F2
:102620000F931F93DF93CF93CDB7DEB7A8970FB665
:10263000F894DEBF0FBECDBF98A78FA3892B09F4F6
:1026400064C019821A821B821C8280E290E09E8301
:102650008D83AFA1B8A516964D905D906D907C903E
:1026600019971A968D909D90AD90BC901D9739C08A
:10267000BEEF8B16BFEF9B06B0E0AB06B0E0BB062B
:1026800028F05EEF252E5FEF352E01C01401AFA1BB
:10269000B8A5ED91FC91A281B3818085863019F0B7
:1026A000E6ECF3E102C0E4EAF3E1C301B201AE01FA
:1026B000495F5F4F20E230E081017F016E010894A5
:1026C000C11CD11CFD0109958823F9F0C101A0E0CE
:1026D000B0E0480E591E6A1E7B1E881A990AAA0A83
:1026E000BB0A81149104A104B10411F6EFA1F8A56D
:1026F0006089718980E090E029813A814B815C8119
:102700000E9430259B01AC0104C020E030E040E095
:1027100050E0B901CA01A8960FB6F894DEBF0FBE0B
:10272000CDBFCF91DF911F910F91FF90EF90DF9080
:10273000CF90BF90AF909F908F907F906F905F9061
:102740004F903F902F900895CF93DF93EC01F901C4
:102750004481558120E030E012C088819981892B25
:1027600059F480819181A281B3810196A11DB11D8F
:1027700080839183A283B3832E5F3F4F22962417D9
:10278000350758F381E0DF91CF910895CF93DF9320
:10279000EC01F9014481558120E030E016C08881C8
:1027A0009981AA81BB810097A105B10559F4808167
:1027B0009181A281B3810196A11DB11D8083918376
:1027C000A283B3832C5F3F4F24962417350738F339
:1027D00081E0DF91CF910895CF92DF92EF92FF9247
:1027E0000F931F93DF93CF93CDB7DEB760970FB6EC
:1027F000F894DEBF0FBECDBF8C01CB01BA016230B1
:1028000071058105910510F480E036C001151105B0
:1028100029F440E050E060E070E016C06250704083
:1028200080409040F8012089318940E050E00E94CA
:102830003025AB01BC01F80182899389A489B5894F
:10284000480F591F6A1F7B1FDE01119680E1FD01B1
:1028500011928A95E9F7F801808191812089318967
:10286000FC01C680D780CB01BA01AD0105EC1FE0A9
:10287000EE24FF24F601099560960FB6F894DEBFAA
:102880000FBECDBFCF91DF911F910F91FF90EF90C1
:10289000DF90CF9008952F923F924F925F926F9268
:1028A0007F928F929F92AF92BF92CF92DF92EF92E0
:1028B000FF920F931F93DF93CF93CDB7DEB7A99706
:1028C0000FB6F894DEBF0FBECDBF1C0179A768A775
:1028D000009709F4D7C06115710509F4D3C0DC0174
:1028E0006D907C901197F3010088F189E02DFFA392
:1028F000EEA39F968D909D90AD90BC90D297D3966D
:102900004D905C90D4978DE2DB011D928A95E9F79A
:10291000FE01319685E0DF011D928A95E9F7811469
:102920009104A104B10409F093C0D301ED91FC918D
:10293000119780858B3039F45A968D909D90AD908B
:10294000BC905D9785C0F3010288F389E02DD30127
:1029500056968D919C915797E81BF90BFFA3EEA318
:1029600077C0720100E010E081149104A104B10469
:1029700031F4F30166897789808D918D2AC06114C5
:10298000710409F1F2E08F169104A104B104D8F0AA
:10299000C501B4016250704080409040D301509610
:1029A0002D913C91519740E050E00E9430259B01D1
:1029B000AC01F30182899389A489B589280F391F55
:1029C0004A1F5B1F04C020E030E040E050E0CA0135
:1029D000B9016E0D7F1D801F911F1C821B82D301C8
:1029E000ED91FC910EA11FA1041915090280F3813C
:1029F000E02DAE014A5F5F4F20E230E0AAE5EA2E0B
:102A0000A1E1FA2E6E010894C11CD11C09958823FE
:102A1000C9F18B819C81480E591EEEA1FFA14E1673
:102A20005F06D0F0C301B501A4010E94B20C4B01B6
:102A30005C0144245524611571058105910561F4FB
:102A4000D10193968D909D90AD90BC90969708C0C3
:102A5000E8A5F9A5FA83E9838D81882309F481CF5C
:102A6000D1019F968D929D92AD92BC92D297D496B1
:102A70005C924E92D397E8A5F9A58081882319F03E
:102A800081E001C080E0A9960FB6F894DEBF0FBECA
:102A9000CDBFCF91DF911F910F91FF90EF90DF900D
:102AA000CF90BF90AF909F908F907F906F905F90EE
:102AB0004F903F902F9008952F923F924F925F92A8
:102AC0006F927F928F929F92AF92BF92CF92DF923E
:102AD000EF92FF920F931F93DF93CF93CDB7DEB7A3
:102AE000EE970FB6F894DEBF0FBECDBF9EAF8DAF91
:102AF000009709F489C1DC0114968D919C9115977A
:102B0000892B09F481C116968D919C911797892B79
:102B100009F47AC1C0C1E981FA81FBABEAAB2C812F
:102B20003D81FB81FCAB4E81EF80F884FEAAEDAACB
:102B3000E985FA850C851D8518AF0FAB6E887F88F7
:102B4000888C998C6A8D7B8D8C8D9D8DEAA0FBA0E5
:102B50000CA11DA1E9AEFAAE0BAF1CAF611471045C
:102B60008104910431F4309709F44AC13F0188246B
:102B700099240FA918AD0115110521F0B80180E0C5
:102B800090E006C0611571058105910509F438C111
:102B9000790100E010E0EEA2FFA208A719A7042F18
:102BA00010E020E030E00AA71BA72CA73DA7A90151
:102BB00098010E9430256EA77FA788AB99AB84014E
:102BC00073012EA13FA148A559A5E21AF30A040BEF
:102BD000150BE61AF70A080B190B8AA99BA901978E
:102BE0002DA93EA945E0220F331F4A95E1F7820F38
:102BF000931F6AA97BA90E944F2580E090E0E61A06
:102C0000F70A080B190B8CA9282F30E040E050E0A0
:102C1000C801B7010E94762579018A0195EFE9166E
:102C20009FE0F90690E0090790E0190708F4E8C072
:102C3000A5EFEA16AFEFFA06A0E00A07A0E01A0730
:102C400028F486E0EDADFEAD808705C08BE0ADAD2C
:102C5000BEAD18968C938CE1EAE4F1E0DF011D92A1
:102C60008A95E9F7EAA9FBA95F01CC24DD24C40118
:102C7000B301A60195010E94302560934A0170932B
:102C80004B0180934C0190934D01C601B5012EA1DB
:102C90003FA148A559A50E943025260E371E481E83
:102CA000591E20924E0130924F0140925001509295
:102CB0005101ADADBEAD18968C91863029F064E01F
:102CC00070E080E090E004C062E070E080E090E0BE
:102CD00022E030E040E050E0E20EF31E041F151F3A
:102CE000A80197010E94302560935201709353010F
:102CF00080935401909355014AA95BA950935701C1
:102D0000409356015CA9852F90E0DC01EAA9FBA95C
:102D1000AE9FC001AF9F900DBE9F900D1124909368
:102D2000590180935801ADADBEAD18968C91863097
:102D3000E1F5EFA9F8AD9F0140E050E0C601B50113
:102D40000E9430252AA53BA54CA55DA50E943025F3
:102D500020914E0130914F0140915001509151010D
:102D6000620F731F841F951F60935E0170935F0154
:102D70008093600190936101EDA8FEA8970140E067
:102D800050E015E0220F331F441F551F1A95D1F74D
:102D9000620F731F841F951F60935A0170935B012C
:102DA00080935C0190935D0128C06EA57FA588A9E2
:102DB00099A9A60195010E94302520914E013091DC
:102DC0004F014091500150915101260F371F481F6C
:102DD000591F20935A0130935B0140935C0150933B
:102DE0005D0109AD1AAD2BAD3CAD009362011093AE
:102DF0006301209364013093650128E431E006C04B
:102E0000109249011092480120E030E0C901EE968D
:102E10000FB6F894DEBF0FBECDBFCF91DF911F91EB
:102E20000F91FF90EF90DF90CF90BF90AF909F9069
:102E30008F907F906F905F904F903F902F9008956C
:102E4000E8E4F1E08EE1DF011D928A95E9F7EDAD4E
:102E5000FEADF0934901E09348012184328443841C
:102E60005484B9E0220C331C441C551CBA95D1F78C
:102E7000C201B101655F7F4F8F4F9F4F0190F0817D
:102E8000E02DAE014F5F5F4F25E230E009958823CA
:102E900009F4B6CF40CE8091480190914901892B29
:102EA00009F0B2CFCDCF2F923F924F925F926F92A7
:102EB0007F928F929F92AF92BF92CF92DF92EF92CA
:102EC000FF920F931F93DF93CF9300D000D00F9208
:102ED000CDB7DEB79D838C839B01892B09F4F9C0A4
:102EE0004115510509F4F5C0DA010D900020E9F70C
:102EF000A41BB50BCD010B966DE070E00E944F2531
:102F0000862F8F5F8B83D90193962D903D904D90A6
:102F10005C909697AC81BD81ED91FC9180852114E8
:102F200031044104510441F48B3081F4EC81FD8182
:102F3000228C338C448C558CAA24BB246501EE244E
:102F4000FF24870166247724430110C0AC81BD8132
:102F50005696ED90FD900D911C91599752966D905B
:102F60007D908D909C905597570168011A82E614C8
:102F7000F7040805190509F07EC021143104410445
:102F8000510409F4A6C0E114F10401051105E9F1A9
:102F90008C819D81B201A1010E94B20C6115710565
:102FA0008105910581F58C819D81B201A10101E02E
:102FB00010E020E030E00E94410E7B018C016115A1
:102FC00071058105910509F484C06250704080400C
:102FD0009040EC81FD812089318940E050E00E94E1
:102FE00030255B016C01EC81FD8182899389A48984
:102FF000B589A80EB91ECA1EDB1ECF01B801A701F4
:103000000E94EC1369C01B012C01F2E02F16310461
:103010004104510420F4EE24FF2487011CC0C201A6
:10302000B1016250704080409040AC81BD815096AB
:103030002D913C91519740E050E00E9430257B015A
:103040008C01EC81FD8182899389A489B589E80E80
:10305000F91E0A1F1B1FAC81BD8150968D919C915A
:1030600051973C01882499246E0C7F1C801E911E70
:10307000570168011A82AC81BD81ED91FC910190EC
:10308000F081E02DC801B701AE014F5F5F4F21E035
:1030900030E009958823E9F08981853E11F0882385
:1030A00079F4BA81BF5FBA83EB81BE17A8F480E2DE
:1030B00090E0A0E0B0E0E80EF91E0A1F1B1F57CFFA
:1030C00080E290E0A0E0B0E0E80EF91E0A1F1B1FAE
:1030D0004BCFAA24BB246501B501C6010F900F9008
:1030E0000F900F900F90CF91DF911F910F91FF9054
:1030F000EF90DF90CF90BF90AF909F908F907F9098
:103100006F905F904F903F902F9008953F924F9215
:103110005F926F927F928F929F92AF92BF92CF9267
:10312000DF92EF92FF920F931F93DF93CF93CDB770
:10313000DEB7A0970FB6F894DEBF0FBECDBFFC017F
:103140008B01009709F425C16115710509F421C1AE
:103150000190F081E02D44805580DB019996AD907F
:10316000BD90CD90DC909C97E62E912EFB010190B6
:103170000020E9F73197FE2EF61A8F2D90E00C967D
:103180006DE070E00E946325762ECE01019660E22C
:1031900070E04BE050E00E94B825C8016EE270E09C
:1031A0000E94F025FC010097E1F09C012F5F3F4F4A
:1031B00081818823B1F0D9010D900020E9F71197A2
:1031C000A21BB30B8A2F8095F80EBE01675F7F4F5D
:1031D0004A2FA43008F043E0CB01B90150E00E942F
:1031E000AF25CE010196B8E0BF1588F06E2D792D80
:1031F0004F2D50E00E94AF25F80180818E3231F5CD
:1032000081818E3209F482818823F9F01FC0DC01AC
:103210008E2D992D9C01F90188E001900D9281502D
:10322000E1F7D80191968C91982F92959F70803AF2
:1032300010F4905D01C09F598F708A3010F4805D4A
:1032400001C08F599F83888701C077248981853E7B
:1032500011F485E08983ACE08A2E912C8C0E9D1EA2
:1032600085E1F40111928A95E9F7D80190968C9145
:1032700090978C8791962D913D914D915C9194976B
:10328000CA01AA27BB279E8B8D8B3C8F2B8FF80101
:1032900085A196A1A7A1B0A58D8F9E8FAF8FB8A352
:1032A000672D70E0E5E0660F771FEA95E1F780E0B3
:1032B00090E06A0D7B1D8C1D9D1DAE014F5F5F4F21
:1032C00020E230E0F2010995882309F462C0E98028
:1032D000FE01329694018E2D8695E794EE24E794B4
:1032E000E82A8191E80EE217F307A9F7F72C4E01BF
:1032F0000894811C911C6DE0362E5FE0652E44C061
:10330000C4016FEF70E040E250E00E94B825F39CEA
:10331000D00111241D97A00FB11F91E0F401E90F16
:10332000F11D8C918083892F8F5FF401E80FF11DCF
:1033300010829E5F9B3019F09A3121F402C09EE00A
:1033400001C09CE18C91882321F09F3110F41196EB
:10335000E5CFF982F71419F48F2D806489836C8688
:10336000EE861D861B8E1C8EC601B501A40120E2CF
:1033700030E0F201099580E290E0A0E0B0E0A80E14
:10338000B91ECA1EDB1EFA94FF2009F0B9CF81E0F6
:1033900001C080E0A0960FB6F894DEBF0FBECDBF8F
:1033A000CF91DF911F910F91FF90EF90DF90CF9021
:1033B000BF90AF909F908F907F906F905F904F9055
:1033C0003F9008955F926F927F928F929F92AF92FB
:1033D000BF92CF92DF92EF92FF920F931F93CF9302
:1033E000DF935C014B01EA01009709F4B2C061155B
:1033F000710509F4AEC0FB018081882309F4A9C0DE
:1034000041155105A1F4A5C0C401662D752D0E947A
:10341000CA25009771F4F50183A194A1A5A1B6A1D5
:1034200087A790ABA1ABB2AB14AA13AA92C0642E2B
:103430005D2EC501BE010E944B14882329F7F501BA
:10344000C080D180C60140E050E060E070E001E063
:1034500010E020E030E00E94410E7B018C016115FC
:1034600071058105910509F474C0C601B801A70171
:103470000E94EC138DE2FE0111928A95E9F780E13A
:1034800088A3C801B7016250704080409040F601A7
:103490002089318940E050E00E943025F6012289E0
:1034A000338944895589260F371F481F591F29A77B
:1034B0003AA74BA75CA7BEE27B2E7882E9A2FAA2CC
:1034C0000BA31CA3C601BE010E9486188823E1F14C
:1034D00089A59AA5ABA5BCA58096A11DB11D89A7FC
:1034E0009AA7ABA7BCA77982F50183A194A1A5A156
:1034F000B6A189A39AA3ABA3BCA3C601BE010E9437
:103500008618882309F1862D952DB4014FE150E0EE
:103510000E94E125E9A2FAA20BA31CA3C601B501F2
:10352000AE010E94531769A77AA78BA79CA76115C4
:1035300071058105910541F0C601BE010E94861802
:10354000882311F081E006C0C601B801A7010E94DE
:10355000580D80E0DF91CF911F910F91FF90EF9078
:10356000DF90CF90BF90AF909F908F907F906F90A3
:103570005F900895AF92BF92CF92DF92EF92FF9249
:103580000F931F93CF93DF938C017B01EA01009788
:1035900009F44DC06115710509F449C0FB01808132
:1035A000882309F444C04115510509F440C0B42EE4
:1035B000AD2EC801BE010E944B14882399F0C701AB
:1035C0006B2D7A2D0E94CA25009799F7F80183A1E7
:1035D00094A1A5A1B6A187A790ABA1ABB2AB14AA49
:1035E00013AA25C0F801C080D1808DE2FE0111929E
:1035F0008A95E9F78B2D9A2DB7014FE150E00E9493
:10360000E125C601B801AE010E94531769A77AA748
:103610008BA79CA7611571058105910541F0C60135
:10362000BE010E948618882319F081E001C080E065
:10363000DF91CF911F910F91FF90EF90DF90CF908E
:10364000BF90AF9008952F923F924F925F926F92EA
:103650007F928F929F92AF92BF92CF92DF92EF9222
:10366000FF920F931F93DF93CF93CDB7DEB72E97C3
:103670000FB6F894DEBF0FBECDBF1C014F83588735
:1036800069877A87009709F428C1DC019396CD9069
:10369000DD90ED90FC909697ED91FC912089318919
:1036A000C114D104E104F10499F04F805884698475
:1036B0007A844901AA24BB2422273327A901281987
:1036C00039094A095B092B873C874D875E8720C0F3
:1036D0008F819885A985BA850097A105B10509F460
:1036E000DCC0E3CFD1018D919C91B701A6010E946E
:1036F000B20C611571058105910581F02B853C8522
:103700004D855E85420E531E641E751E6B017C0145
:1037100084149504A604B70428F3F9C0C301B201C8
:10372000680D791D8A1D9B1D61507040804090403E
:10373000A50194010E94762589019A01D1018D91FC
:103740009C91B701A6010E94410E6115710581058A
:10375000910509F4C2C0C114D104E104F10439F4A3
:10376000F10163A374A385A396A36B017C012F8150
:10377000388549855A85D10197962D933D934D9370
:103780005C939A97211531054105510529F4F10102
:1037900013A214A215A216A2F10181919191BF0169
:1037A0000E948618882309F498C02F81388549859E
:1037B0005A85211531054105510531F4D1018D910D
:1037C0009C91B701A60167C084149504A604B704B0
:1037D00008F463C0F101008111810115110509F49C
:1037E0005CC0F2E0CF16D104E104F10408F455C046
:1037F000C801B701A6010E94B20C4B015C01D801BF
:10380000ED91FC9180850480F581E02D8B3001F5F0
:103810008FEF9FEFAFEFBFE08B839C83AD83BE83C1
:1038200092E0CC0CDD1CEE1CFF1C9A95D1F7D80160
:1038300016966D917D918D919C9119976C0D7D1DC2
:103840008E1D9F1DAE014D5F5F4F24E030E018C01C
:103850008FEF9FEF9A838983CC0CDD1CEE1CFF1C3D
:10386000D80116966D917D918D919C9119976C0D53
:103870007D1D8E1D9F1DAE014F5F5F4F22E030E02A
:103880000995882351F081149104A104B10429F011
:10389000C801B501A4010E94580DF10187A590A9A6
:1038A000A1A9B2A92F81388549855A8528173907DA
:1038B0004A075B0780F48F819885A985BA85F10155
:1038C00087A790ABA1ABB2ABD101D3961D921D924D
:1038D0001D921C92D69781E001C080E02E960FB613
:1038E000F894DEBF0FBECDBFCF91DF911F910F9136
:1038F000FF90EF90DF90CF90BF90AF909F908F9010
:103900007F906F905F904F903F902F900895C114DB
:10391000D104E104F10409F401CF29CFCF92DF9261
:10392000EF92FF920F931F93CF93DF93EC016B0104
:10393000009709F447C06115710509F443C08FA5CC
:1039400098A9A9A9BAA9413059F0413018F04230DC
:10395000C9F50CC0FB01E080F1800281138113C026
:10396000FB01E080F1800281138109C0FB01E0804E
:10397000F180028113818FA198A5A9A5BAA5E80EAF
:10398000F91E0A1F1B1F8FA198A5A9A5BAA58E1500
:103990009F05A007B10738F4CE01B801A7010E9426
:1039A000231B882379F0EFA6F8AA09AB1AAB1BAA50
:1039B0001CAA1DAA1EAAF601E082F18202831383CB
:1039C00081E001C080E0DF91CF911F910F91FF90C6
:1039D000EF90DF90CF9008952F923F924F925F9299
:1039E0006F927F928F929F92AF92BF92CF92DF920F
:1039F000EF92FF920F931F93DF93CF93CDB7DEB774
:103A000028970FB6F894DEBF0FBECDBF98878F837F
:103A10007C836B835E834D83009709F47DC1672BA4
:103A200009F47AC1452B09F477C1DC019F966D90AA
:103A30007D908D909C90D297FC0187A190A5A1A527
:103A4000B2A586159705A805B90508F465C10190CA
:103A5000F081E02D208931893A832983AF81B885AF
:103A6000D396ED90FD900D911C91D697E114F10441
:103A70000105110509F073C09396ED90FD900D912D
:103A80001C919697E114F10401051105F9F46114F4
:103A900071048104910409F03FC1CF0140E050E07E
:103AA00060E070E001E010E020E030E00E94410EB4
:103AB0007B018C01EF81F88563A374A385A396A392
:103AC000611571058105910509F426C1AF81B8859D
:103AD0009F96AD90BD90CD90DC90D297A114B1048B
:103AE000C104D10491F53BC0A218B308C408D5089D
:103AF000EF81F88580819181B801A7010E94B20C05
:103B0000611571058105910519F07B018C0122C0B9
:103B1000A114B104C104D10409F0FEC0AF81B8857D
:103B20008D919C91B801A70101E010E020E030E008
:103B30000E94410EAB01BC014115510561057105A3
:103B400009F4EAC07A018B0105C0E981FA811F01FD
:103B500044245524A214B304C404D50428F62981AE
:103B60003A8121503040622273222F5F3F4F3A83C7
:103B700029838D809E80AF81B885AD90BC90A114C3
:103B8000B104F9F0B2E0EB16F10401051105C8F03B
:103B9000C801B7016250704080409040F501208913
:103BA000318940E050E00E9430259B01AC01F501D5
:103BB00082899389A489B589280F391F4A1F5B1F01
:103BC00004C020E030E040E050E0C980DA80C61850
:103BD000D7088C149D0408F46401D501ED91FC9183
:103BE000C301A0E0B0E0280F391F4A1F5B1F04800B
:103BF000F581E02DCA01B9014B815C8196010995DF
:103C0000882309F45DC08C189D08C601A0E0B0E0CF
:103C1000EF81F88527A530A941A952A9280F391F9E
:103C20004A1F5B1FDF0127A730AB41AB52ABC60178
:103C3000860D971DE981FA818E179F0778F18D9186
:103C40009C91B801A7010E94B20C61157105810514
:103C5000910519F07B018C011FC08114910499F02A
:103C6000AF81B8858D919C91B801A70101E010E06A
:103C700020E030E00E94410EAB01BC01411551052E
:103C80006105710539F4EF81F88513AA14AA15AA04
:103C900016AA16C07A018B0166247724AF81B885F5
:103CA000D396ED92FD920D931C93D69781149104B7
:103CB00039F0EB81FC81EC0DFD1DFC83EB835BCFC8
:103CC000EF81F88587A590A9A1A9B2A9E7A0F0A4E2
:103CD00001A512A5E816F9060A071B07C0F487A379
:103CE00090A7A1A7B2A781919191BF010E948618C8
:103CF000882369F4AF81B8859F968D909C90D0976A
:103D00008E189F08FD01E7A6F0AA01AB12AB4D810A
:103D10005E814819590902C04FEF5FEFCA0128962A
:103D20000FB6F894DEBF0FBECDBFCF91DF911F91CC
:103D30000F91FF90EF90DF90CF90BF90AF909F904A
:103D40008F907F906F905F904F903F902F9008954D
:103D5000CF93DF93AC01DB010097A9F161157105E9
:103D600091F190968C91909784FF2DC080919D0148
:103D700090919E01892B19F4EDE9F1E008C0809142
:103D8000D2019091D301892BF1F4E2EDF1E09F0192
:103D90002E5F3F4FBD018DE2EB010990BE01E901AD
:103DA00009929E018150C1F75183408391968D9174
:103DB0009D910D90BC91A02D87A790ABA1ABB2AB0C
:103DC00014AA13AA02C0E0E0F0E0CF01DF91CF9186
:103DD0000895CF93DF939C01FB01009731F06115AB
:103DE000710519F080A184FF29C020E030E0C901ED
:103DF000DF91CF910895C8E6D1E0DF018DE20D900B
:103E000009928150E1F73093670120936601109287
:103E1000950110929601109297011092980181A13C
:103E200092A1A3A1B4A18093990190939A01A09328
:103E30009B01B0939C0126E631E0D9CF80916601C9
:103E400090916701892B89F6D6CF6F927F928F92DE
:103E50009F92AF92BF92CF92DF92EF92FF920F9319
:103E60001F93CF93DF934C01EB017A01009709F484
:103E700067C06115710509F463C08881882309F45E
:103E80005FC04115510509F45BC08F3209F42196DA
:103E90008DE2F70111928A95E9F780E1F70180A39D
:103EA000370101C0E5018881882309F44BC0C401B2
:103EB000B7010E94A81E6C01009709F441C0CE0111
:103EC0006FE270E00E94BF25009739F0482F4C1B2D
:103ED0005C010894A11CB11C2AC0FE0101900020C5
:103EE000E9F731974E2F4C1B5E01A40EB11C1FC089
:103EF000F30101900020E9F73197E619F709E0177F
:103F0000F107B9F4CE01B301A8010E94D3250097AF
:103F100081F4F601118210820C0F1D1FF8018081BF
:103F2000882381F0F70180A184FDBCCF09C0042F54
:103F300010E0C601B7010E944B148823C9F612C0D5
:103F400080E001C081E0DF91CF911F910F91FF9040
:103F5000EF90DF90CF90BF90AF909F908F907F9029
:103F60006F900895F601118210829DCFFC01009799
:103F700011F480E00895108681E008958F929F9259
:103F8000AF92BF92CF92DF92EF92FF920F93DF93A7
:103F9000CF93CDB7DEB760970FB6F894DEBF0FBEF4
:103FA000CDBF7C016B015A014901009709F493C010
:103FB0006115710509F48FC004300CF08CC007FD49
:103FC0001DC0602F772767FD7095E4E0660F771FAF
:103FD000EA95E1F762547E4F882777FD8095982F08
:103FE000AE014F5F5F4F20E130E0F7010995882374
:103FF00009F471C08D81882309F46DC080910F028E
:10400000882309F068C07CC08D8180930F022A85C7
:1040100030E040E050E0542F432F322F22278B8591
:1040200090E0A0E0B0E0DC0199278827282B392B0D
:104030004A2B5B2B898590E0A0E0B0E0282B392B40
:104040004A2B5B2B8C8590E0A0E0B0E0B82FAA272C
:1040500099278827282B392B4A2B5B2B209310027A
:104060003093110240931202509313022E8530E0D8
:1040700040E050E0542F432F322F22278F8590E0CD
:10408000A0E0B0E0DC0199278827282B392B4A2BA8
:104090005B2B8D8590E0A0E0B0E0282B392B4A2BDC
:1040A0005B2B888990E0A0E0B0E0B82FAA27992781
:1040B0008827282B392B4A2B5B2B20931402309313
:1040C0001502409316025093170203C08FEF80939E
:1040D0000F029F0102C020E030E0C90160960FB6D8
:1040E000F894DEBF0FBECDBFCF91DF910F91FF904F
:1040F000EF90DF90CF90BF90AF909F908F900895FA
:10410000E7E0F2E081E1DF011D928A95E9F7F092A4
:104110000802E0920702D0920A02C0920902B0920D
:104120000C02A0920B0290920E0280920D0207FFE9
:104130006BCFCCCF81E0089580E00895282F8FEFDA
:104140008EBD0DB407FEFDCF8DB58F778DBD8EB5BD
:10415000822F80648EBD0DB407FEFDCF8DB58F77A5
:104160008DBD872F9927AA27BB278EBD0DB407FECB
:10417000FDCF8DB58F778DBDCB01AA27BB278EBD17
:104180000DB407FEFDCF8DB58F778DBDBB27A72F53
:10419000962F852F8EBD0DB407FEFDCF8DB58F7781
:1041A0008DBD4EBD0DB407FEFDCF8DB58F778DBD96
:1041B000222319F0283069F406C085E98EBD0DB4BC
:1041C00007FEFDCF0BC087E88EBD0DB407FEFDCF07
:1041D00005C08FEF8EBD0DB407FEFDCF8DB58F7777
:1041E0008DBD90E02FEF2EBD0DB407FEFDCF8DB538
:1041F0008F778DBD8EB58F3F19F49F5F9A3099F7F9
:104200000895CF92DF92EF92FF920F931F93CF9377
:10421000DF93EC01009781F089E1FE0111928A950C
:10422000E9F728988AE040E050E060E070E00E9402
:104230009E20882319F0289A80E0F7C09FEF9EBD4A
:104240000DB407FEFDCF8DB58F778DBD8EB58E3F3A
:10425000B1F71C2FCE01FC0160E670E00FEF9E2F3E
:10426000911B0EBD0DB407FEFDCF8DB58F778DBDB3
:104270002EB5983028F4933088F4992359F00CC067
:104280009D3018F4993070F40BC09D3019F19E30B8
:1042900069F524C028832AC0208328C0218326C032
:1042A0002A8724C030E040E050E0062E04C0220FF0
:1042B000331F441F551F0A94D2F78B859C85AD850B
:1042C000BE85822B932BA42BB52B8B879C87AD8728
:1042D000BE870CC02295207F2F8708C0922F929511
:1042E0009F708F85892B8F872F70288B3196685010
:1042F00070408FEF603D780709F0B1CF89E040E072
:1043000050E060E070E00E949E20882309F093CF87
:104310009FEF9EBD0DB407FEFDCF8DB58F778DBD90
:104320008EB58E3FB1F7F0E070E020E030E040E085
:1043300050E060E01FEFE1E01EBD0DB407FEFDCFD1
:104340008DB58F778DBD8EB56E3079F490E086FD9A
:10435000ED8B85FDEE8B84FDEF8B8C7090709595C9
:10436000879595958795888F5AC06730F9F06830A2
:1043700030F4653061F0663009F051C00BC069302F
:10438000A1F1693010F16A3009F049C032C0F82F4C
:10439000FF7045C090E0A0E0B0E083709070A07026
:1043A000B0702227382F492F5A2F39C090E0A0E053
:1043B000B0E0282B392B4A2B5B2BA2E0220F331FB6
:1043C000441F551FAA95D1F72AC0829586958695D8
:1043D000837090E0A0E0B0E0282B392B4A2B5B2BB8
:1043E0002F5F3F4F4F4F5F4F1AC0782F7370770F7B
:1043F00016C0881F8827881F782B8F2F90E0029681
:10440000870F911D69017A0104C0CC0CDD1CEE1CE4
:10441000FF1C8A95D2F7C98ADA8AEB8AFC8A6F5F19
:10442000623109F089CF289A81E0DF91CF911F9105
:104430000F91FF90EF90DF90CF9008952F923F92D1
:104440004F925F926F927F928F929F92AF92BF92A4
:10445000CF92DF92EF92FF920F931F93CF93DF9350
:104460004B015C012A01390133243A94222423941C
:10447000A1C0E401D170CE01A0E0B0E085017401DB
:10448000E81AF90A0A0B1B0BC12CB2E0DB2ECC1A7E
:10449000DD0A6C147D0408F4630180911804909186
:1044A0001904A0911A04B0911B04E816F9060A0732
:1044B0001B07F9F00E94F422882309F481C0209799
:1044C00029F480E0C81682E0D80658F4C801B70184
:1044D00048E152E020E032E00E940E23882309F4F4
:1044E0006FC0E0921804F092190400931A0410931C
:1044F0001B0488E1481682E0580671F09E01285E90
:104500003D4FC901B201A6010E94AF2510921C04C3
:104510006C147D0409F452C0289888E1B801A70101
:104520000E949E20882311F0289A4AC08EEF8EBDEB
:104530000DB407FEFDCF8DB58F778DBDE8E1F2E0BC
:1045400081918EBD0DB407FEFDCF8DB58F778DBDEA
:1045500084E0E831F807A1F73EBC0DB407FEFDCFBB
:104560008DB58F778DBD3EBC0DB407FEFDCF8DB5EB
:104570008F778DBD3EBC0DB407FEFDCF8DB58F7717
:104580008DBD8EB58F3FB1F78EBD0DB407FEFDCF4B
:104590008DB58F778DBD8EB5289A4C0C5D1CC601EC
:1045A000A0E0B0E0880E991EAA1EBB1E6C187D0804
:1045B00020921C046114710409F05BCF81E001C0FA
:1045C00080E0DF91CF911F910F91FF90EF90DF90EE
:1045D000CF90BF90AF909F908F907F906F905F90A3
:1045E0004F903F902F90089580911C04882311F0E4
:1045F00081E00895609118047091190480911A0463
:1046000090911B0448E152E020E032E00E941E221B
:10461000882319F081E080931C0408953F924F9203
:104620005F926F927F928F929F92AF92BF92CF9242
:10463000DF92EF92FF920F931F93CF93DF933B0193
:104640004C016A01290133243A948FC01FEFA12E37
:1046500011E0B12EA620B720C501A0E0B0E0840192
:104660007301E81AF90A0A0B1B0BC0E0D2E0CA1961
:10467000DB094C165D0608F4E20180911804909164
:104680001904A0911A04B0911B04E816F9060A0750
:104690001B0709F457C00E94F422882309F46AC05A
:1046A000289881E1B801A7010E949E20882319F073
:1046B000289A80E05FC03EBC0DB407FEFDCF8DB5EB
:1046C0008F778DBD8EB58E3FB1F7E8E1F2E03EBC4D
:1046D0000DB407FEFDCF8DB58F778DBD8EB5808370
:1046E00084E0E731F80711F03196F1CFE092180439
:1046F000F092190400931A0410931B049501285E8C
:104700003D4FC601B901AE010E94AF253EBC0DB4BC
:1047100007FEFDCF8DB58F778DBD8EB53EBC0DB438
:1047200007FEFDCF8DB58F778DBD8EB5289A3EBC27
:104730000DB407FEFDCFCC0EDD1E8DB58F778DBD80
:104740008EB50AC09501285E3D4FC601B901AE0184
:104750000E94AF25CC0EDD1E4C1A5D0ACE01A0E0F2
:10476000B0E0680E791E8A1E9B1E4114510409F0A8
:104770006DCF81E0DF91CF911F910F91FF90EF906E
:10478000DF90CF90BF90AF909F908F907F906F9071
:104790005F904F903F9008952F923F924F925F927B
:1047A0006F927F928F929F92AF92BF92CF92DF9241
:1047B000EF92FF920F931F93DF93CF9300D000D01F
:1047C000CDB7DEB74B015C013A013C832B83270157
:1047D000DA82C98241155105A9F12115310591F1FE
:1047E0000217130778F1E114F10461F11901309413
:1047F000219431083394021B130B6901EE24FF242A
:10480000C501B401A3012B813C810E940E238823A2
:10481000C9F0C301B501A40129813A81F2010995CA
:10482000882391F0020D131D8B819C81800F911FB5
:104830002B813C818217930738F08C0C9D1CAE1C99
:10484000BF1CDECF80E001C081E00F900F900F9081
:104850000F90CF91DF911F910F91FF90EF90DF901C
:10486000CF90BF90AF909F908F907F906F905F9010
:104870004F903F902F9008950F931F93CF93DF9306
:10488000229A219A209A2398289A83E58CBD8DB587
:104890008E7F8DBD10921D0490E02FEF2EBD0DB4C4
:1048A00007FEFDCF8DB58F778DBD8EB59F5F9A309A
:1048B000A9F72898C0E0D0E080E040E050E060E058
:1048C00070E00E949E20182F813039F081E0CF3FA8
:1048D000D80709F440C02196EFCF87E340E050E0CD
:1048E00060E070E00E949E2089E240E050E060E0DD
:1048F00070E00E949E2082FD02C010931D048091F2
:104900001D04082F10E003701070C0E0D0E0011506
:10491000110549F087E340E050E060E070E00E945C
:104920009E2089E201C081E040E050E060E070E05C
:104930000E949E2080FF06C08FE7CF3FD80759F026
:104940002196E5CF80E140E052E060E070E00E9417
:104950009E20882319F0289A80E022C0289A8CB5DE
:104960008C7F8CBD8DB581608DBD8FEF9FEFAFEFDC
:10497000BFEF8093180490931904A0931A04B09386
:104980001B0481E080931C0460E070E080E090E014
:1049900048E152E020E032E00E940E23811181E0E4
:1049A000DF91CF911F910F9108954F925F926F9277
:1049B0007F928F929F92AF92BF92CF92DF92EF92AF
:1049C000FF920F931F93CF93DF935B016C014A011A
:1049D000E901380127014115510571F10115110552
:1049E00059F1FF242115310511F5FF24F3941FC05F
:1049F000C401B601A5019201F30109958C0100974C
:104A0000E9F0FF2019F4C817D907B0F0C601B501C5
:104A1000A40198010E941E22882371F0C801A0E021
:104A2000B0E0A80EB91ECA1EDB1EC01BD10BFF20B2
:104A3000F9F62097E9F602C080E001C081E0DF913D
:104A4000CF911F910F91FF90EF90DF90CF90BF908B
:104A5000AF909F908F907F906F905F904F90089550
:104A6000629FD001739FF001829FE00DF11D649F52
:104A7000E00DF11D929FF00D839FF00D749FF00DDE
:104A8000659FF00D9927729FB00DE11DF91F639F7F
:104A9000B00DE11DF91FBD01CF0111240895AA1B1E
:104AA000BB1B51E107C0AA1FBB1FA617B70710F019
:104AB000A61BB70B881F991F5A95A9F7809590954B
:104AC000BC01CD01089597FB092E07260AD077FD7A
:104AD00004D0E5DF06D000201AF4709561957F4F71
:104AE0000895F6F7909581959F4F0895A1E21A2EAB
:104AF000AA1BBB1BFD010DC0AA1FBB1FEE1FFF1F82
:104B0000A217B307E407F50720F0A21BB30BE40BD1
:104B1000F50B661F771F881F991F1A9469F7609518
:104B20007095809590959B01AC01BD01CF010895D2
:104B3000FB01DC018D91059080190110D9F3990BCF
:104B40000895FB01DC014150504030F08D910590FB
:104B5000801919F40020B9F7881B990B0895FB01FF
:104B6000DC0102C001900D9241505040D8F70895E9
:104B7000DC0101C06D9341505040E0F70895FC0105
:104B80008191861721F08823D9F7992708953197C5
:104B9000CF010895FB01DC018D9101908019011076
:104BA000D9F3990B0895FB01DC014150504030F0DE
:104BB0008D910190801919F40020B9F7881B990B89
:104BC0000895FB01DC014150504048F001900D92E6
:104BD0000020C9F701C01D9241505040E0F70895F0
:104BE000FC0181E090E00190061609F4CF0100205D
:104BF000D1F701970895CF93DF93EC014B8140FFEC
:104C00001AC046FF0AC04F7B4B838E819F8101965D
:104C10009F838E838A81282F2BC042FF13C0E88197
:104C2000F9818081282F332727FD30952115310503
:104C300029F440624B832FEF3FEF1BC03196F9837D
:104C4000E88311C0EA85FB85CE0109959C0197FF99
:104C50000AC09B812F5F3F4F11F080E201C080E1CD
:104C6000892B8B83E8CF8E819F8101969F838E83D2
:104C700030E0C901DF91CF9108950F931F93CF9337
:104C8000DF938C01EB018B8181FF1BC082FF0DC084
:104C90002E813F818C819D812817390764F4E8813A
:104CA000F9810193F983E88306C0E885F985802FAF
:104CB0000995892B31F48E819F8101969F838E8384
:104CC00002C00FEF1FEFC801DF91CF911F910F912D
:104CD0000895A0E0B0E0EFE6F6E20C94F728FE01BC
:104CE000359661917191A0917808B09179081396E9
:104CF0008C911397886013968C938091780890918B
:104D00007908AF010E949626E0917808F091790821
:104D10002381277F23832096E2E00C94132960915E
:104D20007808709179080E943D260895ABE0B0E0C4
:104D3000ECE9F6E20C94E7283C012B015A01FC0156
:104D400017821682838181FD03C06FEF7FEFC6C19A
:104D50009AE0892E1E010894211C311CF301238145
:104D6000F20123FD859123FF81912F01882309F40E
:104D7000B2C1853239F423FD859123FF81912F0142
:104D8000853229F490E0B3010E943D26E7CF982FA9
:104D9000FF24EE249924FFE1FF15D0F09B3269F047
:104DA0009C3228F4903259F0933291F40EC09D3227
:104DB00049F0903369F441E024C052E0F52A84E0E0
:104DC000F82A28C098E0F92A25C0E0E1FE2A22C08E
:104DD000F7FC29C0892F80538A3070F4F6FE05C095
:104DE000989C902C1124980E15C0E89CE02C11245E
:104DF000E80EF0E2FF2A0EC09E3229F4F6FC6BC1E9
:104E000040E4F42A07C09C3619F450E8F52A02C0A1
:104E1000983649F4F20123FD959123FF91912F01DA
:104E2000992309F0B8CF892F8554833018F0805228
:104E3000833038F444E050E0A40EB51E5FE359839C
:104E40000FC0933631F0933779F0933509F056C09F
:104E500020C0F5018081898342E050E0A40EB51E98
:104E6000610101E010E012C0F501C080D180F6FCC4
:104E700003C06FEF7FEF02C0692D70E042E050E0A9
:104E8000A40EB51EC6010E947E288C015FE7F522A4
:104E900014C0F501C080D180F6FC03C06FEF7FEF36
:104EA00002C0692D70E042E050E0A40EB51EC601BC
:104EB0000E9473288C0150E8F52AF3FE07C01AC03F
:104EC00080E290E0B3010E943D26EA948E2D90E0AE
:104ED00008171907A8F30EC0F601F7FC8591F7FE35
:104EE00081916F0190E0B3010E943D26E110EA94A8
:104EF000015010400115110579F7EAC0943611F000
:104F0000993669F5F7FE08C0F501208131814281AB
:104F1000538184E090E00AC0F501808191819C0179
:104F2000442737FD4095542F82E090E0A80EB91E2B
:104F30009FE6F92257FF09C050954095309521957D
:104F40003F4F4F4F5F4FE0E8FE2ACA01B901A10170
:104F50002AE030E00E948928D82ED21840C0953728
:104F600029F41F2D1F7E2AE030E01DC01F2D197F60
:104F70009F3661F0903720F4983509F0ACC00FC02F
:104F8000903739F0983709F0A6C004C028E030E027
:104F90000AC0106114FD146020E130E004C014FD6B
:104FA000166020E132E017FF08C0F50160817181D1
:104FB0008281938144E050E008C0F50180819181B5
:104FC000BC0180E090E042E050E0A40EB51EA101DB
:104FD0000E948928D82ED2188FE7F82EF122F6FEEB
:104FE0000BC05EEFF522D91438F4F4FE07C0F2FCD2
:104FF00005C08FEEF82202C01D2D01C0192DF4FE50
:105000000DC0FE01ED0DF11D8081803319F499EE84
:10501000F92208C01F5FF2FE05C003C08F2D8678FD
:1050200009F01F5F0F2DF3FC14C0F0FE0FC01E151A
:1050300010F09D2C0BC09D2C9E0C911A1E2D06C0AD
:1050400080E290E0B3010E943D261F5F1E15C0F371
:1050500004C01E1510F4E11A01C0EE2404FF0FC0B5
:1050600080E390E0B3010E943D2602FF1DC001FDD8
:1050700003C088E790E00EC088E590E00BC0802F69
:10508000867891F001FF02C08BE201C080E2F7FC5C
:105090008DE290E0B3010E943D2606C080E390E0DF
:1050A000B3010E943D269A94D914C0F3DA94F10119
:1050B000ED0DF11D808190E0B3010E943D26DD20C1
:1050C000A9F706C080E290E0B3010E943D26EA9471
:1050D000EE20C1F743CEF30166817781CB012B9699
:1050E000E2E10C940329FC0105906150704001102D
:1050F000D8F7809590958E0F9F1F0895FC01615001
:10510000704001900110D8F7809590958E0F9F1FE9
:105110000895FA01AA27283051F1203181F1E8944D
:105120006F936E7F6E5F7F4F8F4F9F4FAF4FB1E09A
:105130003ED0B4E03CD0670F781F891F9A1FA11D95
:10514000680F791F8A1F911DA11D6A0F711D811D96
:10515000911DA11D20D009F468943F912AE0269F5B
:1051600011243019305D3193DEF6CF010895462FBA
:105170004770405D4193B3E00FD0C9F7F6CF462F9B
:105180004F70405D4A3318F0495D31FD4052419304
:1051900002D0A9F7EACFB4E0A695979587957795C1
:1051A0006795BA95C9F700976105710508959B0148
:1051B000AC010A2E06945795479537952795BA95D1
:1051C000C9F7620F731F841F951FA01D08952F92AA
:1051D0003F924F925F926F927F928F929F92AF9287
:1051E000BF92CF92DF92EF92FF920F931F93CF93D4
:1051F000DF93CDB7DEB7CA1BDB0B0FB6F894DEBF6B
:105200000FBECDBF09942A88398848885F846E8490
:105210007D848C849B84AA84B984C884DF80EE80DA
:10522000FD800C811B81AA81B981CE0FD11D0FB6E3
:10523000F894DEBF0FBECDBFED010895F894FFCF07
:105240002F0052494646005741564500666D74206E
:1052500000646174610000000003000000009A0C0B
:10526000A40C000001030507090E10121416181CE7
:025270001E001E
:00000001FF
