:100000000C946F010C948C010C948C010C948C0159
:100010000C948C010C948C010C948C010C948C012C
:100020000C948C010C948C010C948C010C948C011C
:100030000C948C010C948C010C948C010C948C010C
:100040000C948C010C948C010C948C010C948C01FC
:100050000C948C010C94CD070C9472080C948C01B8
:100060000C948C010C948C010C948C010C948C01DC
:100070000C948C010C948C010C948C010C948C01CC
:100080000C948C010C948C010C948C010C948C01BC
:100090000C948C010C948C010C948C010C948C01AC
:1000A0000C948C010C948C010C948C01756E6B6E0D
:1000B0006F776E20636F6D6D616E643A2000706CB7
:1000C000617920006572726F722073796E63696E58
:1000D00067206469736B0A0073796E6300657272DE
:1000E0006F72206372656174696E672064697265FE
:1000F00063746F72793A20006D6B646972200065D9
:1001000072726F722077726974696E6720746F20E3
:1001100066696C650A006572726F72207365656B43
:10012000696E67206F6E20006572726F72206F704B
:10013000656E696E6720007772697465200065726C
:10014000726F72206372656174696E672066696C94
:10015000653A2000746F75636820006572726F7273
:100160002064656C6574696E672066696C653A2009
:1001700000726D20006572726F7220726561646931
:100180006E67206469736B20696E666F0A0064692C
:10019000736B006572726F72206F70656E696E6747
:1001A000200063617420006C73006469726563747D
:1001B0006F7279206E6F7420666F756E643A2000DE
:1001C00063642000696E6974006F70656E696E67A4
:1001D00020726F6F74206469726563746F72792026
:1001E0006661696C65640A006F70656E696E672090
:1001F00066696C6573797374656D206661696C6599
:10020000640A006F70656E696E6720706172746950
:1002100074696F6E206661696C65640A004D4D43B8
:100220002F534420696E697469616C697A617469DD
:100230006F6E206661696C65640A00667265653A76
:1002400020202000666F726D61743A200077722E54
:1002500070722E3A2000636F70793A202020004D92
:10026000420A0073697A653A20202000646174654F
:100270003A2020200073657269616C3A2030780062
:100280007265763A202020200070726F643A202038
:1002900020006F656D3A20202020006D616E75662C
:1002A0003A20203078006572726F72206F70656E30
:1002B000696E672025730D0A00456E64206F662005
:1002C00066696C650D0A00427566666572696E67DF
:1002D000206572726F722025690D0A2000001124BA
:1002E0001FBECFEFDAE0DEBFCDBF11E0A0E0B1E08E
:1002F000E8E1F0E502C005900D92A233B107D9F70D
:1003000018E0A2E3B1E001C01D92A836B107E1F701
:100310000E9442070C940A280C9400000F931F932C
:10032000DF93CF93CDB7DEB769970FB6F894DEBFF2
:100330000FBECDBF8C01009709F4A3C0CE0101967A
:100340000E94F41F882309F49CC08BE992E00E946C
:10035000310689810E94F3068AE00E94200682E924
:1003600092E00E943106CE0102960E943F068AE08A
:100370000E94200689E892E00E943106CE0105968F
:100380000E943F068AE00E94200680E892E00E94D8
:1003900031068B850E94F3068AE00E94200685E7DD
:1003A00092E00E9431066C857D858E859F850E9436
:1003B00019078AE00E9420068CE692E00E9431062E
:1003C000898990E00E94B5068FE20E942006888904
:1003D00090E00E94B5068AE00E94200683E692E043
:1003E0000E9431066A897B898C899D8924E19695D2
:1003F0008795779567952A95D1F70E944C068FE5EA
:1004000092E00E94310686E592E00E9431068E89D4
:1004100090E00E94B5068AE00E9420068DE492E0FA
:100420000E943106888D90E00E94B5068FE20E94FE
:1004300020068F8990E00E94B5068AE00E9420067F
:1004400084E492E00E943106898D90E00E94B50616
:100450008AE00E9420068BE392E00E943106C801E8
:100460000E94F5110E944C068FE20E942006C801EE
:100470000E94B6110E944C068AE00E94200681E08C
:1004800001C080E069960FB6F894DEBF0FBECDBF05
:10049000CF91DF911F910F910895EF92FF920F93EB
:1004A0001F93CF93DF93EB018A0179010BC0C70142
:1004B000B8010E94BD24009729F4CE010E943C108F
:1004C00081E006C0CE01B7010E943E13882379F770
:1004D000DF91CF911F910F91FF90EF900895EF92D0
:1004E000FF920F931F93DF93CF93CDB7DEB7AD97F6
:1004F0000FB6F894DEBF0FBECDBF8C017E0108940D
:10050000E11CF11C97010E944D02882319F420E0A0
:1005100030E005C0C801B7010E94DC1D9C01C90183
:10052000AD960FB6F894DEBF0FBECDBFCF91DF9171
:100530001F910F91FF90EF900895CF92DF92EF926D
:10054000FF920F931F93CF93DF93EC01162F60E080
:1005500070E0412F50E00E94AB2400E0C12EDD246A
:100560000894C108D10823C00E941606182F8830AD
:1005700011F08F3789F40023D1F00150FE01E00F14
:10058000F11D108288E00E94200680E20E94200671
:1005900088E00E9420060BC00E942006FE01EE0D9E
:1005A000FF1D1A3011F4108207C010830F5FE02E78
:1005B000FF24EC14FD04C4F2802FDF91CF911F9132
:1005C0000F91FF90EF90DF90CF9008950E946B08FD
:1005D0008091330190913401009711F00E94BB0E7D
:1005E0001092320100D089EB92E0EDB7FEB7928312
:1005F00081830E945C250F900F900895EF92FF92E7
:100600000F931F93CF93DF93EC018B017A018091BD
:100610003201882361F00E946B0880913301909130
:100620003401009711F00E94BB0E10923201CE01EE
:10063000B801A7010E946F029C019093340180933E
:100640003301009789F400D000D086EA92E0EDB73C
:10065000FEB792838183F482E3820E945C250F902F
:100660000F900F900F9008C081E080933201C90174
:1006700066EE72E00E947F09DF91CF911F910F918A
:10068000FF90EF9008952F923F924F925F926F925A
:100690007F928F929F92AF92BF92CF92DF92EF9212
:1006A000FF920F931F93DF93CF93CDB7DEB7C4585C
:1006B000D0400FB6F894DEBF0FBECDBF83B7817FA9
:1006C00083BF1092C80088E18093C90086E08093C0
:1006D000CA00539A5A9A87E690E09093CD0080938F
:1006E000CC0086E191E090936508809364085DE01A
:1006F000452E512C4C0E5D1ECE018E5A9F4FCF576A
:10070000DF4F99838883C158D040DE011596CD57BD
:10071000DF4FB983A883C358D0400E942F2388237A
:1007200019F48DE192E048C081E092E26FEB72E251
:1007300041E151E228EC33E200E00E94B11EC158D1
:10074000DF4F99838883CF57D040892BB1F481E064
:1007500092E26FEB72E241E151E228EC33E20FEFFB
:100760000E94B11EC158DF4F99838883CF57D04074
:10077000892B19F483E092E01FC0C158DF4F8881B4
:100780009981CF57D0400E944F144C01009719F423
:1007900088EE91E011C08E010B5D1F4F60E071E0AB
:1007A000A8010E94181EC401B8010E949B1D3C01B3
:1007B000009729F489EC91E00E943106AECFC40184
:1007C0000E948E0144E2242E8EE30E94200680E2E5
:1007D0000E942006C20168E10E949D028823A1F3C5
:1007E000C20164EC71E00E948B24892B09F411C2D0
:1007F000C20160EC71E043E050E00E949424892B38
:1008000001F58889882301F3C401B301AE01405F7B
:100810005F4F9E012E5A3F4F0E944D02882371F078
:10082000C401BE016E5A7F4F0E949B1D8C01009730
:1008300029F0C3010E9436103801C6CF8AEA91E040
:10084000EEC0C20167EA71E00E948B24892BC1F1DE
:1008500040C0CF57DF4FE881F981C158D0400190A7
:100860000020E9F78F0101501040CF57DF4F8881FA
:100870009981C158D040081B190BCE018E5A9F4F49
:100880000E943F06E3968FADE39784FD02C080E2AD
:1008900001C08FE2122D101B0E94200604C080E2CE
:1008A0000E94200611501123D1F7EB966CAD7DAD5F
:1008B0008EAD9FADEB970E944C068AE00E94200609
:1008C000C301BE016E5A7F4F0E943E13882309F672
:1008D0007BCFC20162EA71E044E050E00E949424C0
:1008E000892B09F068C08989882309F46DCF8E01AE
:1008F0000F5E1F4FC401B301A8010E946F025C018B
:10090000009721F0CC24DD24760147C083E991E0F3
:100910000E943106C8010E943F068AE00E9420061C
:1009200053CFC701B6010E9419078AE30E9420062F
:100930008E010B5F1F4F80E20E942006D8018D912F
:100940008D010E94F30604151505A9F780E20E94A7
:1009500020068E010B5F1F4FF8019081892F805276
:100960008F3510F4892F01C08EE20E9420060F5FA0
:100970001F4F802FCD57DF4FF881C358D0408F1BBA
:10098000831550F38AE00E94200688E090E0A0E002
:10099000B0E0C80ED91EEA1EFB1EC501BE016B5F8A
:1009A0007F4F48E050E00E94C10E382E882309F0A6
:1009B000B8CFC501C5C0C2016EE871E00E948B24AA
:1009C000892B49F4C4010E948E01882309F0FCCED2
:1009D00085E791E000C1C20161E771E043E050E0CA
:1009E0000E949424892B01F58889882309F4ECCE90
:1009F000C401B301AE01405F5F4F9E012E5A3F4FCD
:100A00000E944D02882349F0C401BE016E5A7F4FF7
:100A10000E943011882309F0D7CE8BE591E00E9427
:100A20003106CE01409677CFC20164E571E046E021
:100A300050E00E949424892BB9F48B89882309F40F
:100A4000C3CEC301BE016D5E7F4FAE014E5A5F4FF4
:100A50000E94AD19882309F0B7CE8EE391E00E9481
:100A60003106CE01439657CFC20167E371E046E0FD
:100A700050E00E949424892B09F082C08B8988233E
:100A800009F4A2CE8E010D5E1F4F02C00F5F1F4FF3
:100A9000D8018C91803219F08823C1F795CEF801E6
:100AA000108233E1C32ED12CCC0EDD1EC401B30164
:100AB000A6010E946F027C01009729F020E030E03F
:100AC00040E050E01BC088E291E00E943106C60180
:100AD00022CFCA01B9012AE030E040E050E00E9494
:100AE00023249B01AC018D2D90E0C097AA2797FD90
:100AF000A095BA2F280F391F4A1F5B1FD8011196E6
:100B0000DC900F5F1F4F8D2D80538A3010F32983A7
:100B10003A834B835C83C701BE016F5F7F4F40E028
:100B20000E94811B882379F486E191E00E943106BE
:100B3000CE0143960E943F068AE00E942006C7012C
:100B40000E94BB0E41CE8CE30E94200680E20E94F0
:100B50002006C20168E10E949D02182F882379F3C4
:100B6000C701B201412F50E00E94DF1B212F30E06E
:100B70008217930741F38FEF90E00E943106DFCF99
:100B8000C20168EF70E046E050E00E949424892B97
:100B9000A1F48B89882309F417CE8E010D5E1F4FB7
:100BA000C301B801AE014E5A5F4F0E94D518882389
:100BB00009F00ACE8DED90E0ABCEC20168ED70E099
:100BC0000E948B24892B51F40E94E721882309F08D
:100BD000FBCD84EC90E00E943106F6CDC2016EEBB5
:100BE00070E045E050E00E949424892B61F48A89EA
:100BF000882309F4E9CDC401B301AE014E5E5F4F15
:100C00000E94FE02E1CD8CEA90E00E943106C20112
:100C100082CEC4010E949F0BC158DF4F8881998109
:100C2000CF57D0400E94A91E78CD089580916408C6
:100C3000909165080E94EE248D3009F48AE00895B1
:100C40001F93182F8A3019F48DE00E9420066091BE
:100C5000640870916508812F90E00E9430251F91F3
:100C60000895CF93DF93EC01FE01219684918823B0
:100C700019F00E942006F8CFDF91CF910895CF930D
:100C8000DF93EC0103C021960E942006888188230F
:100C9000D1F7DF91CF9108954F925F926F927F923B
:100CA0008F929F92AF92BF92CF92DF92EF92FF927C
:100CB0000F931F93CF93DF935B016C01E12C8AECC0
:100CC000F82E8AE9082F8BE3182F4424C0E0D0E0E7
:100CD000C601B501A80197010E946924922E222322
:100CE00041F4442031F481E0E816F10401051105D6
:100CF00031F4892D805D0E94200644244394C8016C
:100D0000B7012AE030E040E050E00E946924822EE2
:100D1000732E642E552E2196CA30D105A9F0692D67
:100D200070E080E090E0A80197010E942324A61AB9
:100D3000B70AC80AD90A282D372D462D552DC901C5
:100D4000DA017C018D01C4CFDF91CF911F910F910A
:100D5000FF90EF90DF90CF90BF90AF909F908F90DB
:100D60007F906F905F904F900895CF92DF92FF92A7
:100D70000F931F93CF93DF936C01C0E1D7E240E064
:100D800000E010E0C601BE010E944224F62E662358
:100D900029F4442319F4C130D10529F48F2D805D45
:100DA0000E94200641E0CE016AE070E00E944224E9
:100DB0000F5F1F4F0530110571F08F2D90E09C01E2
:100DC0002C9FC0012D9F900D3C9F900D1124C81A9F
:100DD000D90AEB01D7CFDF91CF911F910F91FF90EF
:100DE000DF90CF9008951F93182F82958F708A30CF
:100DF00010F4805D01C0895A0E942006812F90E086
:100E00008F709070212F2F700A971CF4822F805DB5
:100E100002C0822F895A0E9420061F9108951F93B5
:100E2000182F892F0E94F306812F0E94F3061F912D
:100E30000895EF92FF920F931F937B018C01C801DD
:100E4000AA27BB270E940F07C7010E940F071F9107
:100E50000F91FF90EF90089584B7877F84BF88E15A
:100E60000FB6F89480936000109260000FBE80E08F
:100E700090E020E80FB6F894209361008093610021
:100E80000FBE089584B7877F84BF88E10FB6F894BA
:100E900080936000109260000FBE80E090E020E838
:100EA0000FB6F89420936100809361000FBE0E94FA
:100EB000430380E090E0089520EA3FE004C0F90198
:100EC0003197F1F701970097D1F7089535E004C005
:100ED000232F2A95F1F701970097D1F70895909362
:100EE0001404809313049C01240F351F30931604BF
:100EF000209315047093180460931704640F751FF2
:100F000070931A04609319041092380190933A0177
:100F10008093390130933C0120933B0110921B04D4
:100F200022E024BD809135019091360136E5823270
:100F3000930759F03CEA8434930721F080589E438C
:100F400051F406C025BD8CE208C025BD8AE505C068
:100F500025BD8CE702C025BD89EF87BD81E088BD36
:100F600080916E00866080936E0078940895EEE61E
:100F7000F0E080818D7F80830895EEE6F0E080814F
:100F8000826080830895EEE6F0E01082808187BD64
:100F900087B585BD85B584BD08951F920F920FB6A4
:100FA0000F9211242F933F938F939F93AF93BF93EF
:100FB000EF93FF93A0913901B0913A01FD01919116
:100FC000F0933A01E09339019093CF00809137017B
:100FD000813051F411968C918093D0003196F0932A
:100FE0003A01E093390102C09093D0002091390179
:100FF00030913A0180913B0190913C0128173907CB
:1010000070F180913801805F80931B048051909132
:101010006E00946090936E0091E089278093380170
:10102000882369F0809117049091180490933A01F5
:10103000809339018091190490911A040CC0809119
:1010400013049091140490933A0180933901809194
:1010500015049091160490933C0180933B01FF91FD
:10106000EF91BF91AF919F918F913F912F910F90F1
:101070000FBE0F901F901895909336018093350105
:101080006093370184E082BF82E089BD09B400FE2D
:10109000FDCF82B7806182BF82E48093C00081E08F
:1010A0008093C1001092CF003F9A8091C00081626E
:1010B0008093C0001092D000269A88E0E3E1F4E02B
:1010C000DF011D928A95E9F71092380110923A01DA
:1010D0001092390108950E94C30710925D04109286
:1010E0005C0408951F920F920FB60F921124CF92B5
:1010F000DF92EF92FF920F931F932F933F934F93A3
:101100005F936F937F938F939F93AF93BF93CF938F
:10111000DF93EF93FF9380916E008B7F80936E003F
:10112000789480911B04882309F4CAC0C0905C04A1
:10113000D0905D04C114D10409F4C2C080911B0495
:10114000082F10E001701070102F0027110F0E599A
:101150001B4F80915E04813009F09BC0E80180E163
:10116000E82EF12CC6016CE174E040E450E00E94EE
:10117000C10E803491050CF488C080911D04805804
:10118000888380911F04805889838091210480582E
:101190008A838091230480588B8380912504805812
:1011A0008C838091270480588D83809129048058F6
:1011B0008E8380912B0480588F8380912D048058DA
:1011C000888780912F0480588987809131048058C6
:1011D0008A878091330480588B87809135048058AA
:1011E0008C878091370480588D878091390480588E
:1011F0008E8780913B0480588F8780913D04805872
:10120000888B80913F048058898B8091410480585D
:101210008A8B8091430480588B8B80914504805841
:101220008C8B8091470480588D8B80914904805825
:101230008E8B80914B0480588F8B80914D04805809
:10124000888F80914F048058898F809151048058F5
:101250008A8F8091530480588B8F809155048058D9
:101260008C8F8091570480588D8F809159048058BD
:101270008E8F80915B0480588F8FA0960894E10830
:10128000F108E114F10409F06DCFCE01801B910B40
:1012900006C0C601B80140E052E00E94C10E805075
:1012A000924060F40E94C30781E080935F04E09164
:1012B0006004F0916104309709F0099510921B04C5
:1012C000FF91EF91DF91CF91BF91AF919F918F915E
:1012D0007F916F915F914F913F912F911F910F914E
:1012E000FF90EF90DF90CF900F900FBE0F901F9068
:1012F00018950E94BD0708950E94B7070895EF92C0
:10130000FF920F931F93DF93CF93CDB7DEB7609714
:101310000FB6F894DEBF0FBECDBF8C0190935D0475
:1013200080935C0410925F04709361046093600486
:10133000BE016B5F7F4F0E94AA0A2D853E858EE31A
:101340002038380799F0EEE321383E0728F4FFE112
:1013500020343F0749F40AC086E52232380731F0CD
:10136000ECEA24343E0711F020E43FE19F858889B0
:10137000803121F481E080935E0402C010925E040B
:1013800060E0923009F461E0C9010E943C088D815F
:101390009E81AF81B88589839A83AB83BC83C80162
:1013A000BE016F5F7F4F40E00E94811BE0905C04B4
:1013B000F0905D0480915E04813009F099C002E6EE
:1013C00014E0C7016CE174E040E450E00E94C10EFB
:1013D000803491050CF488C080911D048058F80178
:1013E000808380911F0480588183809121048058DC
:1013F00082838091230480588383809125048058C0
:1014000084838091270480588583809129048058A3
:10141000868380912B048058878380912D04805887
:10142000808780912F048058818780913104805873
:101430008287809133048058838780913504805857
:10144000848780913704805885878091390480583B
:10145000868780913B048058878780913D0480581F
:10146000808B80913F048058818B8091410480580B
:10147000828B809143048058838B809145048058EF
:10148000848B809147048058858B809149048058D3
:10149000868B80914B048058878B80914D048058B7
:1014A000808F80914F048058818F809151048058A3
:1014B000828F809153048058838F80915504805887
:1014C000848F809157048058858F8091590480586B
:1014D000868F80915B048058878F005E1F4FF8E0F5
:1014E00002361F0709F06DCF98012256344008C01C
:1014F000C70162E674E040E054E00E94C10E9C0126
:1015000084E02030380788F400D000D087EC92E0E7
:10151000EDB7FEB792838183348323830E945C25D9
:101520000F900F900F900F9008C082E694E062E653
:1015300076E040E052E00E946F0760960FB6F894A4
:10154000DEBF0FBECDBFCF91DF911F910F91FF90F6
:10155000EF9008958F929F92AF92BF92CF92DF92B9
:10156000EF92FF920F931F93DF93CF93CDB7DEB728
:101570002F970FB6F894DEBF0FBECDBF8C015B0175
:101580006115710511F481E0B5C01F8218861986B6
:101590001A869BE0C92ED12CCC0EDD1E85E0F6010B
:1015A00011928A95E9F7C801BE01695F7F4F40E05B
:1015B0000E94811BC801B60144E050E00E94C10EA8
:1015C000C60162E071E044E050E00E94C62400974A
:1015D00009F08FC083E0882E912C8C0E9D1EC801CF
:1015E000B40144E050E00E94C10EC801B60144E0DD
:1015F00050E00E94C10EC60167E071E044E050E097
:101600000E94C624009711F083E074C0C801B6019F
:1016100044E050E00E94C10EC6016CE071E044E07D
:1016200050E00E94C624009709F063C0C801B401CD
:1016300044E050E00E94C10E7E010894E11CF11CC0
:10164000C801B70142E050E00E94C10E89819A8131
:10165000019711F084E04EC0C801B70142E050E0AC
:101660000E94C10E8981F5018287C801B40144E05E
:1016700050E00E94C10E8B819C81F501918780878B
:10168000C801B40144E050E00E94C10EC801B70196
:1016900042E050E00E94C10EC801B70142E050E0B4
:1016A0000E94C10E8981F5018387C801B60144E01B
:1016B00050E00E94C10EC60161E171E044E050E0DB
:1016C0000E94C6240097A9F4C801B40144E050E088
:1016D0000E94C10E8B819C81AD81BE81F501848306
:1016E0009583A683B783C801B5010E94251080E0C9
:1016F00001C082E02F960FB6F894DEBF0FBECDBFBB
:10170000CF91DF911F910F91FF90EF90DF90CF90DD
:10171000BF90AF909F908F900895982F8091C800B0
:1017200085FFFCCF9093CE0080E090E008958091FB
:10173000C80087FFFCCF8091CE0090E00895FC01A7
:10174000009711F01182108208950F931F93DF9379
:10175000CF9300D000D000D0CDB7DEB7DC0100972A
:1017600009F488C0423051056105710508F482C052
:10177000ED91FC911197808516960D911D912D91FB
:101780003C9119970190F081E02D8B30D9F592E0D2
:10179000440F551F661F771F9A95D1F7040F151F29
:1017A000261F371FC901B801AE014D5F5F4F24E00E
:1017B00030E00995882309F45DC02B813C814D817F
:1017C0005E81211531054105510509F457C0273FB8
:1017D0008FEF38078FEF48078FE0580709F44AC0AA
:1017E000DA01C901805F9F4FAF4FBF400797A10546
:1017F000B10508F43FC0DA01C901885F9F4FAF4FC0
:10180000BF4034C0440F551F661F771F040F151FBC
:10181000261F371FC901B801AE014F5F5F4F22E09D
:1018200030E00995882331F189819A819C0140E05B
:1018300050E0211531054105510501F1273F8FEF9A
:10184000380780E0480780E05807A1F0DA01C901B5
:10185000805F9F4FA040B0400797A105B10550F0B1
:10186000DA01C901885F9F4FA040B0400897A105E9
:10187000B10520F420E030E040E050E0B901CA01B9
:1018800026960FB6F894DEBF0FBECDBFCF91DF9185
:101890001F910F9108952F923F924F925F926F92F6
:1018A0007F928F929F92AF92BF92CF92DF92EF92F0
:1018B000FF920F931F93DF93CF9300D000D000D0FF
:1018C000CDB7DEB74C01009709F4B2C042305105E4
:1018D0006105710508F4ACC0DC0116964D905D9071
:1018E0006D907C901997ED91FC9180858B3009F07B
:1018F0005CC0E3E02E2E312C2C0E3D1E5A016B01F4
:1019000032E0AA0CBB1CCC1CDD1C3A95D1F7A40C10
:10191000B51CC61CD71CD401ED91FC910190F0813F
:10192000E02DC601B501A10124E030E0099588232E
:1019300009F47EC0EB80FC800D811E81E114F1046E
:101940000105110509F476C0D801C701805F9F4FDA
:10195000AF4FBF400897A105B10508F469C0D80191
:10196000C701885F9F4FAF4FBF400897A105B105E2
:1019700018F4EE24FF2487011B821C821D821E8224
:10198000D401ED91FC910480F581E02DC601B501F3
:10199000A10124E030E00995B801A701E114F104A8
:1019A0000105110509F0AACF45C05E010894A11CEC
:1019B000B11C7A018B01EE0CFF1C001F111FE40CFF
:1019C000F51C061D171DD401ED91FC910190F081CD
:1019D000E02DC801B701A50122E030E00995882378
:1019E00039F1C980DA80C114D10421F1C6014096D1
:1019F0000897F0F0B8EFCB16BFEFDB0610F0CC2461
:101A0000DD241A821982D401ED91FC910480F581C4
:101A1000E02DC801B701A50122E030E00995A6013B
:101A200060E070E0411551056105710511F602C0D5
:101A300080E001C081E026960FB6F894DEBF0FBEAD
:101A4000CDBFCF91DF911F910F91FF90EF90DF906D
:101A5000CF90BF90AF909F908F907F906F905F904E
:101A60004F903F902F9008952F923F924F925F9208
:101A70006F927F928F929F92AF92BF92CF92DF929E
:101A8000EF92FF920F931F93DF93CF93CDB7DEB703
:101A90006D970FB6F894DEBF0FBECDBF9D8F8C8FB4
:101AA0003A014B01B901009709F444C1DC01ED9101
:101AB000FC911197208131813B8F2A8F4481558180
:101AC000598F488F1696AD90BD90CD90DC901997A8
:101AD0001F8680858B3011F451E05F87EC8DFD8D82
:101AE00082859385A485B585FF85FF2351F09C01F0
:101AF000AD0192E056954795379527959A95D1F780
:101B000006C09C01AD015695479537952795288BC2
:101B1000398B4A8B5B8BD601C5010896A11DB11D7F
:101B20008B879C87AD87BE87A60195012C5F3F4FB1
:101B30004F4F5F4F2F83388749875A87C801DB0192
:101B40008C8B9D8BAE8BBF8BEE24FF248701B2E084
:101B50002B2E312C412C512C9AC03F85332381F000
:101B60006B857C858D859E85AE014D5F5F4F24E042
:101B700030E0AA8DBB8DFD0109958823B1F4DAC050
:101B80006F81788589859A85AE014F5F5F4F22E02E
:101B900030E0EA8DFB8D0995882309F4CBC089815B
:101BA0009A81892B09F057C025C08B819C81AD811A
:101BB000BE810097A105B10509F04DC0E114F10403
:101BC0000105110549F42FEF3FEF4FEF5FE02B8345
:101BD0003C834D835E8304C0EB82FC820D831E83B5
:101BE0006B857C858D859E85AE014D5F5F4F24E0C2
:101BF00030E015C0E114F1040105110529F4EFEFFF
:101C0000FFEFFA83E98302C0FA82E9826F81788567
:101C100089859A85AE014F5F5F4F22E030E0A88D45
:101C2000B98DFD0109958823E1F12C893D894E8903
:101C30005F8921503040404050402C8B3D8B4E8B73
:101C40005F8B211531054105510519F482017101A0
:101C500031C0820171010894211C311C411C511CAE
:101C60008B859C85AD85BE850496A11DB11D8B8796
:101C70009C87AD87BE872F81388549855A852E5F21
:101C80003F4F4F4F5F4F2F83388749875A87888947
:101C90009989AA89BB89281639064A065B0608F481
:101CA0005CCF2C893D894E895F892115310541051D
:101CB0005105D1F532E06316710481049104E8F115
:101CC0004F854423D9F0EB82FC820D831E83A2E072
:101CD000660C771C881C991CAA95D1F7A60CB71C1A
:101CE000C81CD91CC601B501AE014D5F5F4F24E091
:101CF00030E0A88DB98DFD01099514C0FA82E98202
:101D0000660C771C881C991CA60CB71CC81CD91C17
:101D1000C601B501AE014F5F5F4F22E030E0E88DB4
:101D2000F98D0995882349F48C8D9D8DB801A70103
:101D30000E944B0CEE24FF248701B701C8016D9669
:101D40000FB6F894DEBF0FBECDBFCF91DF911F91CC
:101D50000F91FF90EF90DF90CF90BF90AF909F904A
:101D60008F907F906F905F904F903F902F9008954D
:101D700080E190E00895FC01009711F0118210823B
:101D800008952F923F924F925F926F927F928F921F
:101D90009F92AF92BF92CF92DF92EF92FF920F93FA
:101DA0001F93DF93CF93CDB7DEB72C970FB6F89480
:101DB000DEBF0FBECDBF9C838B837E836D83588730
:101DC0004F83009709F422C1672B09F41FC1452BEB
:101DD00009F41CC1DC019F966D907D908D909C90C4
:101DE000D29797962D913D914D915C919A97EF8165
:101DF000F885CF01A0E0B0E0860D971DA81DB91DA4
:101E0000281739074A075B0740F4B90166197709B3
:101E100078876F83672B09F4FCC0AB81BC81ED919F
:101E2000FC911197208931893A832983D396AD900B
:101E3000BD90CD90DC90D697A114B104C104D1041B
:101E400009F047C09396AD90BD90CD90DC909697E9
:101E5000A114B104C104D10439F4611471048104E2
:101E6000910409F4D6C0D2C06114710481049104B4
:101E700081F18401730169817A811B014424552415
:101E800088279927DC0182199309A409B509898754
:101E90009A87AB87BC8718C0AB81BC818D919C9120
:101EA000B601A5010E94A50B5B016C0161157105CE
:101EB0008105910509F4AAC069857A858B859C8581
:101EC000E60EF71E081F191FE214F304040515059A
:101ED00018F789819A8101974C01862097200196F5
:101EE0009A838983EF80F884AB81BC816D907C906C
:101EF00061147104F9F0B2E0AB16B104C104D1046D
:101F0000C8F0C601B5016250704080409040F301B6
:101F10002089318940E050E00E9423249B01AC01DC
:101F2000F30182899389A489B589280F391F4A1F33
:101F30005B1F04C020E030E040E050E009811A81DE
:101F400008191909E016F10608F48701D301ED918B
:101F5000FC91C401A0E0B0E0280F391F4A1F5B1FAD
:101F60000190F081E02DCA01B9014D815E81980197
:101F70000995882389F1E01AF10AC801A0E0B0E0D0
:101F8000EB81FC8127A530A941A952A9280F391F4F
:101F90004A1F5B1FDF0127A730AB41AB52ABC80123
:101FA000880D991DE981FA818E179F07E0F08D91C8
:101FB0009C91B601A5010E94A50B5B016C01611506
:101FC00071058105910569F4AB81BC81D3961D92A1
:101FD0001D921D921C92D6974F8158854E195F090C
:101FE0001AC088249924EB81FC81A3AAB4AAC5AAAB
:101FF000D6AAE114F10439F02D813E81200F311F62
:102000003E832D8371CF4F81588505C04FEF5FEF21
:1020100002C040E050E0CA012C960FB6F894DEBF33
:102020000FBECDBFCF91DF911F910F91FF90EF9029
:10203000DF90CF90BF90AF909F908F907F906F90E8
:102040005F904F903F902F900895DC01FB01611548
:10205000710551F09F968D919D910D90BC91A02D91
:1020600080839183A283B38381E00895FC0100976C
:1020700011F0118210820895FC01009711F480E0A4
:10208000089583A194A1A5A1B6A187A790ABA1AB08
:10209000B2AB14AA13AA81E00895CF92DF92EF9217
:1020A000FF920F931F93CF93DF938C016A017B0103
:1020B000B901D901CD91DC91119712968D919C9126
:1020C0001397809613969C938E931297F8018081B4
:1020D000853E09F4B9C0882309F4B6C089A59AA53C
:1020E000ABA5BCA50097A105B10521F4C9A6DAA648
:1020F000EBA6FCA6209709F4A9C00115110509F467
:10210000A5C0D8019C91992309F4A0C01B968C917D
:102110008F3029F5892F90E08F7390702DE030E09B
:10212000829FA001839F500D929F500D11244D500E
:102130005040A4E2B1E0C40FD51F0DC08D91F8014D
:10214000E80FF11D808189934F5F5F4FE1E0A1337C
:10215000BE0709F479C04F31510580F375C08881FD
:10216000882309F04EC0A801DE01780120E0F701C4
:1021700090819032A1F09C93F801848583FF08C080
:10218000F7018081813420F08B3510F4905E9C93B0
:102190002F5F0894E11CF11C1196283041F78881CB
:1021A000853011F485EE8883D80118968C918032A1
:1021B00021F1FE01E20FF11D8EE28083322F3F5F9D
:1021C0002C5FFA0190859032B9F0FE01E30FF11D0A
:1021D0009083D8011C968C9184FF09C0DA0118966F
:1021E0008C91813420F08B3510F4905E90833F5FAA
:1021F0004F5F5F4F321729F7232FFE01E20FF11DCA
:102200001082F801838588A3228D338D40E050E051
:1022100084899589A0E0B0E0DC0199278827822B8A
:10222000932BA42BB52B89A39AA3ABA3BCA3848D1A
:10223000958DA68DB78D8DA39EA3AFA3B8A781E082
:10224000DB0114968C9302C081E001C080E0DF9135
:10225000CF911F910F91FF90EF90DF90CF90089555
:102260007F928F929F92AF92BF92CF92DF92EF9226
:10227000FF920F931F93DF93CF93CDB7DEB72C97C9
:102280000FB6F894DEBF0FBECDBF6C015B010097A7
:1022900009F457C06115710509F453C0DB01999623
:1022A000ED90FD900D911C919C97E114F1040105B6
:1022B000110509F446C04E010894811C911C85EE5D
:1022C000782ED601ED91FC910190F081E02DC801AE
:1022D000B701A4012CE030E00995882391F17982BF
:1022E000D601ED91FC910480F581E02DC801B70184
:1022F000A4012CE030E00995882319F18C858F30FA
:1023000049F480E290E0A0E0B0E0E80EF91E0A1F78
:102310001B1FD7CFD50191964D915D916D917C9109
:102320009497411551056105710539F0C6010E9468
:102330004B0C20E030E0882311F021E030E0822FC8
:1023400001C080E02C960FB6F894DEBF0FBECDBF63
:10235000CF91DF911F910F91FF90EF90DF90CF9081
:10236000BF90AF909F908F907F900895EF92FF92D3
:102370000F931F93DC01009729F420E030E040E048
:1023800050E02CC0ED91FC91119780851A96ED904C
:10239000FD900D911C911D9750962D913C91519758
:1023A0008B3041F442E016950795F794E7944A95EF
:1023B000D1F704C016950795F794E7948EEF9FEF39
:1023C000AFEFBFEFE80EF91E0A1F1B1F40E050E001
:1023D000C801B7010E9423249B01AC01B901CA01C5
:1023E0001F910F91FF90EF9008952F923F924F927F
:1023F0005F926F927F928F929F92AF92BF92CF9295
:10240000DF92EF92FF920F931F93DF93CF93CDB79D
:10241000DEB7A8970FB6F894DEBF0FBECDBF98A762
:102420008FA3892B09F464C019821A821B821C8233
:1024300080E290E09E838D83AFA1B8A516964D9063
:102440005D906D907C9019971A968D909D90AD90AF
:10245000BC901D9739C0BEEF8B16BFEF9B06B0E056
:10246000AB06B0E0BB0628F05EEF252E5FEF352E01
:1024700001C01401AFA1B8A5ED91FC91A281B38177
:102480008085863019F0E9EBF2E102C0E7E9F2E17C
:10249000C301B201AE01495F5F4F20E230E081012C
:1024A0007F016E010894C11CD11CFD010995882390
:1024B000F9F0C101A0E0B0E0480E591E6A1E7B1E73
:1024C000881A990AAA0ABB0A81149104A104B104CA
:1024D00011F6EFA1F8A56089718980E090E029816B
:1024E0003A814B815C810E9423249B01AC0104C092
:1024F00020E030E040E050E0B901CA01A8960FB6F4
:10250000F894DEBF0FBECDBFCF91DF911F910F9129
:10251000FF90EF90DF90CF90BF90AF909F908F9003
:102520007F906F905F904F903F902F900895CF9342
:10253000DF93EC01F9014481558120E030E012C0C5
:1025400088819981892B59F480819181A281B381FD
:102550000196A11DB11D80839183A283B3832E5F59
:102560003F4F22962417350758F381E0DF91CF9132
:102570000895CF93DF93EC01F9014481558120E068
:1025800030E016C088819981AA81BB810097A1059E
:10259000B10559F480819181A281B3810196A11D79
:1025A000B11D80839183A283B3832C5F3F4F249618
:1025B0002417350738F381E0DF91CF910895CF924A
:1025C000DF92EF92FF920F931F93DF93CF93CDB7DC
:1025D000DEB760970FB6F894DEBF0FBECDBF8C019B
:1025E000CB01BA01623071058105910510F480E0DC
:1025F00036C00115110529F440E050E060E070E0BC
:1026000016C06250704080409040F80120893189A6
:1026100040E050E00E942324AB01BC01F801828914
:102620009389A489B589480F591F6A1F7B1FDE0152
:10263000119680E1FD0111928A95E9F7F8018081F8
:10264000918120893189FC01C680D780CB01BA01F4
:10265000AD0108EB1EE0EE24FF24F601099560961B
:102660000FB6F894DEBF0FBECDBFCF91DF911F91A3
:102670000F91FF90EF90DF90CF9008952F923F92AF
:102680004F925F926F927F928F929F92AF92BF9282
:10269000CF92DF92EF92FF920F931F93DF93CF932E
:1026A000CDB7DEB7A9970FB6F894DEBF0FBECDBF8A
:1026B0001C0179A768A7009709F4D7C061157105B7
:1026C00009F4D3C0DC016D907C901197F301008870
:1026D000F189E02DFFA3EEA39F968D909D90AD9084
:1026E000BC90D297D3964D905C90D4978DE2DB014D
:1026F0001D928A95E9F7FE01319685E0DF011D9272
:102700008A95E9F781149104A104B10409F093C0FA
:10271000D301ED91FC91119780858B3039F45A9655
:102720008D909D90AD90BC905D9785C0F30102881F
:10273000F389E02DD30156968D919C915797E81B14
:10274000F90BFFA3EEA377C0720100E010E0811443
:102750009104A104B10431F4F30166897789808D75
:10276000918D2AC06114710409F1F2E08F16910471
:10277000A104B104D8F0C501B4016250704080409A
:102780009040D30150962D913C91519740E050E0FC
:102790000E9423249B01AC01F30182899389A489BF
:1027A000B589280F391F4A1F5B1F04C020E030E0A5
:1027B00040E050E0CA01B9016E0D7F1D801F911FDE
:1027C0001C821B82D301ED91FC910EA11FA1041963
:1027D00015090280F381E02DAE014A5F5F4F20E2D0
:1027E00030E0ADE4EA2EA0E1FA2E6E010894C11C9F
:1027F000D11C09958823C9F18B819C81480E591EF3
:10280000EEA1FFA14E165F06D0F0C301B501A401F1
:102810000E94A50B4B015C014424552461157105F0
:102820008105910561F4D10193968D909D90AD90B5
:10283000BC90969708C0E8A5F9A5FA83E9838D8135
:10284000882309F481CFD1019F968D929D92AD92FC
:10285000BC92D297D4965C924E92D397E8A5F9A5F4
:102860008081882319F081E001C080E0A9960FB62D
:10287000F894DEBF0FBECDBFCF91DF911F910F91B6
:10288000FF90EF90DF90CF90BF90AF909F908F9090
:102890007F906F905F904F903F902F9008952F9270
:1028A0003F924F925F926F927F928F929F92AF92E0
:1028B000BF92CF92DF92EF92FF920F931F93DF931D
:1028C000CF93CDB7DEB7EE970FB6F894DEBF0FBE4D
:1028D000CDBF9EAF8DAF009709F489C1DC0114967E
:1028E0008D919C911597892B09F481C116968D9134
:1028F0009C911797892B09F47AC1C0C1E981FA81AB
:10290000FBABEAAB2C813D81FB81FCAB4E81EF80C0
:10291000F884FEAAEDAAE985FA850C851D8518AF15
:102920000FAB6E887F88888C998C6A8D7B8D8C8D9F
:102930009D8DEAA0FBA00CA11DA1E9AEFAAE0BAFE4
:102940001CAF611471048104910431F4309709F4CF
:102950004AC13F01882499240FA918AD011511051A
:1029600021F0B80180E090E006C061157105810595
:10297000910509F438C1790100E010E0EEA2FFA250
:1029800008A719A7042F10E020E030E00AA71BA732
:102990002CA73DA7A90198010E9423246EA77FA719
:1029A00088AB99AB840173012EA13FA148A559A51D
:1029B000E21AF30A040B150BE61AF70A080B190BB7
:1029C0008AA99BA901972DA93EA945E0220F331F93
:1029D0004A95E1F7820F931F6AA97BA90E944224BE
:1029E00080E090E0E61AF70A080B190B8CA9282F53
:1029F00030E040E050E0C801B7010E94692479014D
:102A00008A0195EFE9169FE0F90690E0090790E04A
:102A1000190708F4E8C0A5EFEA16AFEFFA06A0E040
:102A20000A07A0E01A0728F486E0EDADFEAD808726
:102A300005C08BE0ADADBEAD18968C938CE1EFE395
:102A4000F1E0DF011D928A95E9F7EAA9FBA95F0190
:102A5000CC24DD24C401B301A60195010E942324E6
:102A600060933F0170934001809341019093420134
:102A7000C601B5012EA13FA148A559A50E94232456
:102A8000260E371E481E591E2092430130924401E3
:102A90004092450150924601ADADBEAD18968C9165
:102AA000863029F064E070E080E090E004C062E0ED
:102AB00070E080E090E022E030E040E050E0E20EA4
:102AC000F31E041F151FA80197010E942324609381
:102AD0004701709348018093490190934A014AA9A4
:102AE0005BA950934C0140934B015CA9852F90E06A
:102AF000DC01EAA9FBA9AE9FC001AF9F900DBE9F6C
:102B0000900D112490934E0180934D01ADADBEAD5B
:102B100018968C918630E1F5EFA9F8AD9F0140E061
:102B200050E0C601B5010E9423242AA53BA54CA56F
:102B30005DA50E94232420914301309144014091DE
:102B4000450150914601620F731F841F951F6093CA
:102B50005301709354018093550190935601EDA851
:102B6000FEA8970140E050E015E0220F331F441FFC
:102B7000551F1A95D1F7620F731F841F951F60931D
:102B80004F0170935001809351019093520128C0DE
:102B90006EA57FA588A999A9A60195010E94232465
:102BA00020914301309144014091450150914601EB
:102BB000260F371F481F591F20934F013093500194
:102BC000409351015093520109AD1AAD2BAD3CAD6C
:102BD00000935701109358012093590130935A01E3
:102BE0002DE331E006C010923E0110923D0120E03D
:102BF00030E0C901EE960FB6F894DEBF0FBECDBF30
:102C0000CF91DF911F910F91FF90EF90DF90CF90C8
:102C1000BF90AF909F908F907F906F905F904F90FC
:102C20003F902F900895EDE3F1E08EE1DF011D92DA
:102C30008A95E9F7EDADFEADF0933E01E0933D01DD
:102C40002184328443845484B9E0220C331C441C14
:102C5000551CBA95D1F7C201B101655F7F4F8F4F07
:102C60009F4F0190F081E02DAE014F5F5F4F25E255
:102C700030E00995882309F4B6CF40CE80913D011C
:102C800090913E01892B09F0B2CFCDCF2F923F9288
:102C90004F925F926F927F928F929F92AF92BF926C
:102CA000CF92DF92EF92FF920F931F93DF93CF9318
:102CB00000D000D00F92CDB7DEB79D838C839B01EF
:102CC000892B09F4F9C04115510509F4F5C0DA0161
:102CD0000D900020E9F7A41BB50BCD010B966DE01C
:102CE00070E00E944224862F8F5F8B83D9019396D8
:102CF0002D903D904D905C909697AC81BD81ED916B
:102D0000FC918085211431044104510441F48B303D
:102D100081F4EC81FD81228C338C448C558CAA2467
:102D2000BB246501EE24FF24870166247724430138
:102D300010C0AC81BD815696ED90FD900D911C9117
:102D4000599752966D907D908D909C905597570114
:102D500068011A82E614F7040805190509F07EC017
:102D6000211431044104510409F4A6C0E114F10412
:102D700001051105E9F18C819D81B201A1010E943B
:102D8000A50B611571058105910581F58C819D81EA
:102D9000B201A10101E010E020E030E00E94340D1A
:102DA0007B018C01611571058105910509F484C0D1
:102DB0006250704080409040EC81FD8120893189D3
:102DC00040E050E00E9423245B016C01EC81FD8116
:102DD00082899389A489B589A80EB91ECA1EDB1EF3
:102DE000CF01B801A7010E94DF1269C01B012C01AD
:102DF000F2E02F1631044104510420F4EE24FF24A4
:102E000087011CC0C201B1016250704080409040F7
:102E1000AC81BD8150962D913C91519740E050E09E
:102E20000E9423247B018C01EC81FD81828993899E
:102E3000A489B589E80EF91E0A1F1B1FAC81BD814C
:102E400050968D919C9151973C01882499246E0C49
:102E50007F1C801E911E570168011A82AC81BD81C2
:102E6000ED91FC910190F081E02DC801B701AE0118
:102E70004F5F5F4F21E030E009958823E9F08981B9
:102E8000853E11F0882379F4BA81BF5FBA83EB8164
:102E9000BE17A8F480E290E0A0E0B0E0E80EF91ED2
:102EA0000A1F1B1F57CF80E290E0A0E0B0E0E80EC1
:102EB000F91E0A1F1B1F4BCFAA24BB246501B501B5
:102EC000C6010F900F900F900F900F90CF91DF9150
:102ED0001F910F91FF90EF90DF90CF90BF90AF9038
:102EE0009F908F907F906F905F904F903F902F902A
:102EF00008953F924F925F926F927F928F929F922E
:102F0000AF92BF92CF92DF92EF92FF920F931F93F7
:102F1000DF93CF93CDB7DEB7A0970FB6F894DEBF9F
:102F20000FBECDBFFC018B01009709F425C16115CF
:102F3000710509F421C10190F081E02D4480558094
:102F4000DB019996AD90BD90CD90DC909C97E62EDC
:102F5000912EFB0101900020E9F73197FE2EF61A21
:102F60008F2D90E00C966DE070E00E945624762E36
:102F7000CE01019660E270E04BE050E00E94AB248D
:102F8000C8016EE270E00E94E324FC010097E1F0CA
:102F90009C012F5F3F4F81818823B1F0D9010D90B3
:102FA0000020E9F71197A21BB30B8A2F8095F80E2A
:102FB000BE01675F7F4F4A2FA43008F043E0CB018A
:102FC000B90150E00E94A224CE010196B8E0BF15DD
:102FD00088F06E2D792D4F2D50E00E94A224F8012B
:102FE00080818E3231F581818E3209F4828188238D
:102FF000F9F01FC0DC018E2D992D9C01F90188E0AC
:1030000001900D928150E1F7D80191968C91982F03
:1030100092959F70803A10F4905D01C09F598F7017
:103020008A3010F4805D01C08F599F83888701C06A
:1030300077248981853E11F485E08983ACE08A2E6E
:10304000912C8C0E9D1E85E1F40111928A95E9F771
:10305000D80190968C9190978C8791962D913D9167
:103060004D915C919497CA01AA27BB279E8B8D8BAB
:103070003C8F2B8FF80185A196A1A7A1B0A58D8FBC
:103080009E8FAF8FB8A3672D70E0E5E0660F771FC6
:10309000EA95E1F780E090E06A0D7B1D8C1D9D1D97
:1030A000AE014F5F5F4F20E230E0F20109958823C7
:1030B00009F462C0E980FE01329694018E2D869556
:1030C000E794EE24E794E82A8191E80EE217F307EB
:1030D000A9F7F72C4E010894811C911C6DE0362E47
:1030E0005FE0652E44C0C4016FEF70E040E250E045
:1030F0000E94AB24F39CD00111241D97A00FB11F97
:1031000091E0F401E90FF11D8C918083892F8F5F8D
:10311000F401E80FF11D10829E5F9B3019F09A3187
:1031200021F402C09EE001C09CE18C91882321F033
:103130009F3110F41196E5CFF982F71419F48F2D11
:10314000806489836C86EE861D861B8E1C8EC6016C
:10315000B501A40120E230E0F201099580E290E09F
:10316000A0E0B0E0A80EB91ECA1EDB1EFA94FF2034
:1031700009F0B9CF81E001C080E0A0960FB6F894C5
:10318000DEBF0FBECDBFCF91DF911F910F91FF909A
:10319000EF90DF90CF90BF90AF909F908F907F90F7
:1031A0006F905F904F903F9008955F926F927F92E3
:1031B0008F929F92AF92BF92CF92DF92EF92FF9247
:1031C0000F931F93CF93DF935C014B01EA010097AC
:1031D00009F4B2C06115710509F4AEC0FB0180812C
:1031E000882309F4A9C041155105A1F4A5C0C40163
:1031F000662D752D0E94BD24009771F4F50183A101
:1032000094A1A5A1B6A187A790ABA1ABB2AB14AA1C
:1032100013AA92C0642E5D2EC501BE010E943E130A
:10322000882329F7F501C080D180C60140E050E035
:1032300060E070E001E010E020E030E00E94340D3A
:103240007B018C01611571058105910509F474C03C
:10325000C601B801A7010E94DF128DE2FE011192A2
:103260008A95E9F780E188A3C801B70162507040F0
:1032700080409040F6012089318940E050E00E9472
:103280002324F6012289338944895589260F371F63
:10329000481F591F29A73AA74BA75CA7BEE27B2E60
:1032A0007882E9A2FAA20BA31CA3C601BE010E9468
:1032B00079178823E1F189A59AA5ABA5BCA58096CD
:1032C000A11DB11D89A79AA7ABA7BCA77982F5015B
:1032D00083A194A1A5A1B6A189A39AA3ABA3BCA3E2
:1032E000C601BE010E947917882309F1862D952D0C
:1032F000B4014FE150E00E94D424E9A2FAA20BA34A
:103300001CA3C601B501AE010E94461669A77AA7A3
:103310008BA79CA7611571058105910541F0C60138
:10332000BE010E947917882311F081E006C0C60112
:10333000B801A7010E944B0C80E0DF91CF911F9153
:103340000F91FF90EF90DF90CF90BF90AF909F9044
:103350008F907F906F905F900895AF92BF92CF92C1
:10336000DF92EF92FF920F931F93CF93DF938C0125
:103370007B01EA01009709F44DC06115710509F45C
:1033800049C0FB018081882309F444C041155105DF
:1033900009F440C0B42EAD2EC801BE010E943E13F8
:1033A000882399F0C7016B2D7A2D0E94BD240097C8
:1033B00099F7F80183A194A1A5A1B6A187A790AB25
:1033C000A1ABB2AB14AA13AA25C0F801C080D1806A
:1033D0008DE2FE0111928A95E9F78B2D9A2DB701A6
:1033E0004FE150E00E94D424C601B801AE010E9412
:1033F000461669A77AA78BA79CA761157105810559
:10340000910541F0C601BE010E947917882319F089
:1034100081E001C080E0DF91CF911F910F91FF907B
:10342000EF90DF90CF90BF90AF9008952F923F9292
:103430004F925F926F927F928F929F92AF92BF92C4
:10344000CF92DF92EF92FF920F931F93DF93CF9370
:10345000CDB7DEB72E970FB6F894DEBF0FBECDBF47
:103460001C014F83588769877A87009709F428C120
:10347000DC019396CD90DD90ED90FC909697ED91C8
:10348000FC9120893189C114D104E104F10499F03F
:103490004F80588469847A844901AA24BB24222756
:1034A0003327A901281939094A095B092B873C8769
:1034B0004D875E8720C08F819885A985BA85009742
:1034C000A105B10509F4DCC0E3CFD1018D919C9138
:1034D000B701A6010E94A50B611571058105910533
:1034E00081F02B853C854D855E85420E531E641E02
:1034F000751E6B017C0184149504A604B70428F39F
:10350000F9C0C301B201680D791D8A1D9B1D615070
:10351000704080409040A50194010E946924890177
:103520009A01D1018D919C91B701A6010E94340DA1
:10353000611571058105910509F4C2C0C114D1045A
:10354000E104F10439F4F10163A374A385A396A304
:103550006B017C012F81388549855A85D101979669
:103560002D933D934D935C939A9721153105410519
:10357000510529F4F10113A214A215A216A2F1011A
:1035800081919191BF010E947917882309F498C015
:103590002F81388549855A85211531054105510509
:1035A00031F4D1018D919C91B701A60167C08414BB
:1035B0009504A604B70408F463C0F10100811181E9
:1035C0000115110509F45CC0F2E0CF16D104E10445
:1035D000F10408F455C0C801B701A6010E94A50B6B
:1035E0004B015C01D801ED91FC9180850480F5814F
:1035F000E02D8B3001F58FEF9FEFAFEFBFE08B83B6
:103600009C83AD83BE8392E0CC0CDD1CEE1CFF1CC2
:103610009A95D1F7D80116966D917D918D919C91D7
:1036200019976C0D7D1D8E1D9F1DAE014D5F5F4F67
:1036300024E030E018C08FEF9FEF9A838983CC0C91
:10364000DD1CEE1CFF1CD80116966D917D918D91AD
:103650009C9119976C0D7D1D8E1D9F1DAE014F5FB6
:103660005F4F22E030E00995882351F081149104E6
:10367000A104B10429F0C801B501A4010E944B0CBA
:10368000F10187A590A9A1A9B2A92F813885498503
:103690005A85281739074A075B0780F48F81988578
:1036A000A985BA85F10187A790ABA1ABB2ABD101D7
:1036B000D3961D921D921D921C92D69781E001C057
:1036C00080E02E960FB6F894DEBF0FBECDBFCF912F
:1036D000DF911F910F91FF90EF90DF90CF90BF90FF
:1036E000AF909F908F907F906F905F904F903F90A2
:1036F0002F900895C114D104E104F10409F401CF1D
:1037000029CFCF92DF92EF92FF920F931F93CF9327
:10371000DF93EC016B01009709F447C06115710557
:1037200009F443C08FA598A9A9A9BAA9413059F0B5
:10373000413018F04230C9F50CC0FB01E080F18047
:103740000281138113C0FB01E080F18002811381AB
:1037500009C0FB01E080F180028113818FA198A54F
:10376000A9A5BAA5E80EF91E0A1F1B1F8FA198A5CF
:10377000A9A5BAA58E159F05A007B10738F4CE01FB
:10378000B801A7010E94161A882379F0EFA6F8AABB
:1037900009AB1AAB1BAA1CAA1DAA1EAAF601E0823D
:1037A000F1820283138381E001C080E0DF91CF9139
:1037B0001F910F91FF90EF90DF90CF9008952F927F
:1037C0003F924F925F926F927F928F929F92AF92B1
:1037D000BF92CF92DF92EF92FF920F931F93DF93EE
:1037E000CF93CDB7DEB728970FB6F894DEBF0FBEE4
:1037F000CDBF98878F837C836B835E834D830097D7
:1038000009F47DC1672B09F47AC1452B09F477C10E
:10381000DC019F966D907D908D909C90D297FC01DD
:1038200087A190A5A1A5B2A586159705A805B905FC
:1038300008F465C10190F081E02D208931893A8337
:103840002983AF81B885D396ED90FD900D911C91A1
:10385000D697E114F1040105110509F073C09396A0
:10386000ED90FD900D911C919697E114F1040105E6
:103870001105F9F4611471048104910409F03FC148
:10388000CF0140E050E060E070E001E010E020E0B7
:1038900030E00E94340D7B018C01EF81F88563A339
:1038A00074A385A396A3611571058105910509F49B
:1038B00026C1AF81B8859F96AD90BD90CD90DC902C
:1038C000D297A114B104C104D10491F53BC0A21850
:1038D000B308C408D508EF81F88580819181B801CB
:1038E000A7010E94A50B611571058105910519F0CD
:1038F0007B018C0122C0A114B104C104D10409F0E0
:10390000FEC0AF81B8858D919C91B801A70101E0FF
:1039100010E020E030E00E94340DAB01BC01411505
:1039200051056105710509F4EAC07A018B0105C0F2
:10393000E981FA811F0144245524A214B304C4046C
:10394000D50428F629813A81215030406222732221
:103950002F5F3F4F3A8329838D809E80AF81B8854A
:10396000AD90BC90A114B104F9F0B2E0EB16F104F3
:1039700001051105C8F0C801B701625070408040D0
:103980009040F5012089318940E050E00E942324D5
:103990009B01AC01F50182899389A489B589280F1F
:1039A000391F4A1F5B1F04C020E030E040E050E0B8
:1039B000C980DA80C618D7088C149D0408F4640105
:1039C000D501ED91FC91C301A0E0B0E0280F391FB3
:1039D0004A1F5B1F0480F581E02DCA01B9014B81AC
:1039E0005C8196010995882309F45DC08C189D08B7
:1039F000C601A0E0B0E0EF81F88527A530A941A974
:103A000052A9280F391F4A1F5B1FDF0127A730ABC0
:103A100041AB52ABC601860D971DE981FA818E1725
:103A20009F0778F18D919C91B801A7010E94A50B89
:103A3000611571058105910519F07B018C011FC08D
:103A40008114910499F0AF81B8858D919C91B80152
:103A5000A70101E010E020E030E00E94340DAB014E
:103A6000BC01411551056105710539F4EF81F885F7
:103A700013AA14AA15AA16AA16C07A018B016624E5
:103A80007724AF81B885D396ED92FD920D931C9368
:103A9000D6978114910439F0EB81FC81EC0DFD1D6A
:103AA000FC83EB835BCFEF81F88587A590A9A1A963
:103AB000B2A9E7A0F0A401A512A5E816F9060A0725
:103AC0001B07C0F487A390A7A1A7B2A781919191EA
:103AD000BF010E947917882369F4AF81B8859F964A
:103AE0008D909C90D0978E189F08FD01E7A6F0AAB4
:103AF00001AB12AB4D815E814819590902C04FEFED
:103B00005FEFCA0128960FB6F894DEBF0FBECDBF97
:103B1000CF91DF911F910F91FF90EF90DF90CF90A9
:103B2000BF90AF909F908F907F906F905F904F90DD
:103B30003F902F900895CF93DF93AC01DB01009766
:103B4000A9F16115710591F190968C91909784FF80
:103B50002DC08091920190919301892B19F4E2E993
:103B6000F1E008C08091C7019091C801892BF1F460
:103B7000E7ECF1E09F012E5F3F4FBD018DE2EB01CD
:103B80000990BE01E90109929E018150C1F751835C
:103B9000408391968D919D910D90BC91A02D87A70A
:103BA00090ABA1ABB2AB14AA13AA02C0E0E0F0E064
:103BB000CF01DF91CF910895CF93DF939C01FB015B
:103BC000009731F06115710519F080A184FF29C0BB
:103BD00020E030E0C901DF91CF910895CDE5D1E03B
:103BE000DF018DE20D9009928150E1F730935C0185
:103BF00020935B0110928A0110928B0110928C012C
:103C000010928D0181A192A1A3A1B4A180938E01F4
:103C100090938F01A0939001B09391012BE531E037
:103C2000D9CF80915B0190915C01892B89F6D6CF29
:103C30006F927F928F929F92AF92BF92CF92DF92BC
:103C4000EF92FF920F931F93CF93DF934C01EB0101
:103C50007A01009709F467C06115710509F463C022
:103C60008881882309F45FC04115510509F45BC0C0
:103C70008F3209F421968DE2F70111928A95E9F7C6
:103C800080E1F70180A3370101C0E5018881882325
:103C900009F44BC0C401B7010E949B1D6C01009741
:103CA00009F441C0CE016FE270E00E94B224009797
:103CB00039F0482F4C1B5C010894A11CB11C2AC090
:103CC000FE0101900020E9F731974E2F4C1B5E0159
:103CD000A40EB11C1FC0F30101900020E9F7319739
:103CE000E619F709E017F107B9F4CE01B301A8010D
:103CF0000E94C624009781F4F601118210820C0FF5
:103D00001D1FF8018081882381F0F70180A184FDC7
:103D1000BCCF09C0042F10E0C601B7010E943E13BA
:103D20008823C9F612C080E001C081E0DF91CF9105
:103D30001F910F91FF90EF90DF90CF90BF90AF90C9
:103D40009F908F907F906F900895F601118210825E
:103D50009DCFFC01009711F480E00895108681E06A
:103D600008958F929F92AF92BF92CF92DF92EF927F
:103D7000FF920F93DF93CF93CDB7DEB760970FB667
:103D8000F894DEBF0FBECDBF7C016B015A01490123
:103D9000009709F493C06115710509F48FC00430D0
:103DA0000CF08CC007FD1DC0602F772767FD709554
:103DB000E4E0660F771FEA95E1F762547E4F8827AB
:103DC00077FD8095982FAE014F5F5F4F20E130E087
:103DD000F7010995882309F471C08D81882309F4BE
:103DE0006DC080910402882309F068C07CC08D8179
:103DF000809304022A8530E040E050E0542F432FA6
:103E0000322F22278B8590E0A0E0B0E0DC019927DB
:103E10008827282B392B4A2B5B2B898590E0A0E043
:103E2000B0E0282B392B4A2B5B2B8C8590E0A0E04F
:103E3000B0E0B82FAA2799278827282B392B4A2B9F
:103E40005B2B2093050230930602409307025093A8
:103E500008022E8530E040E050E0542F432F322FEF
:103E600022278F8590E0A0E0B0E0DC019927882729
:103E7000282B392B4A2B5B2B8D8590E0A0E0B0E0FE
:103E8000282B392B4A2B5B2B888990E0A0E0B0E0EF
:103E9000B82FAA2799278827282B392B4A2B5B2B49
:103EA0002093090230930A0240930B0250930C02B4
:103EB00003C08FEF809304029F0102C020E030E036
:103EC000C90160960FB6F894DEBF0FBECDBFCF918B
:103ED000DF910F91FF90EF90DF90CF90BF90AF9068
:103EE0009F908F900895ECEFF1E081E1DF011D924A
:103EF0008A95E9F7F092FD01E092FC01D092FF0172
:103F0000C092FE01B0920102A092000290920302C0
:103F10008092020207FF6BCFCCCF81E0089580E052
:103F20000895282F8FEF8EBD0DB407FEFDCF8DB500
:103F30008F778DBD8EB5822F80648EBD0DB407FE48
:103F4000FDCF8DB58F778DBD872F9927AA27BB27EA
:103F50008EBD0DB407FEFDCF8DB58F778DBDCB0126
:103F6000AA27BB278EBD0DB407FEFDCF8DB58F7779
:103F70008DBDBB27A72F962F852F8EBD0DB407FEB5
:103F8000FDCF8DB58F778DBD4EBD0DB407FEFDCF36
:103F90008DB58F778DBD222319F0283069F406C0C6
:103FA00085E98EBD0DB407FEFDCF0BC087E88EBD41
:103FB0000DB407FEFDCF05C08FEF8EBD0DB407FE1B
:103FC000FDCF8DB58F778DBD90E02FEF2EBD0DB459
:103FD00007FEFDCF8DB58F778DBD8EB58F3F19F460
:103FE0009F5F9A3099F70895CF92DF92EF92FF92F8
:103FF0000F931F93CF93DF93EC01009781F089E13A
:10400000FE0111928A95E9F728988AE040E050E095
:1040100060E070E00E94911F882319F0289A80E0E8
:10402000F7C09FEF9EBD0DB407FEFDCF8DB58F7716
:104030008DBD8EB58E3FB1F71C2FCE01FC0160E621
:1040400070E00FEF9E2F911B0EBD0DB407FEFDCF4C
:104050008DB58F778DBD2EB5983028F4933088F4C8
:10406000992359F00CC09D3018F4993070F40BC0AE
:104070009D3019F19E3069F524C028832AC0208321
:1040800028C0218326C02A8724C030E040E050E0C9
:10409000062E04C0220F331F441F551F0A94D2F767
:1040A0008B859C85AD85BE85822B932BA42BB52B50
:1040B0008B879C87AD87BE870CC02295207F2F877A
:1040C00008C0922F92959F708F85892B8F872F70B4
:1040D000288B3196685070408FEF603D780709F06B
:1040E000B1CF89E040E050E060E070E00E94911FB5
:1040F000882309F093CF9FEF9EBD0DB407FEFDCF3F
:104100008DB58F778DBD8EB58E3FB1F7F0E070E045
:1041100020E030E040E050E060E01FEFE1E01EBD55
:104120000DB407FEFDCF8DB58F778DBD8EB56E308A
:1041300079F490E086FDED8B85FDEE8B84FDEF8BB1
:104140008C7090709595879595958795888F5AC0B6
:104150006730F9F0683030F4653061F0663009F0AE
:1041600051C00BC06930A1F1693010F16A3009F01B
:1041700049C032C0F82FFF7045C090E0A0E0B0E029
:1041800083709070A070B0702227382F492F5A2F5B
:1041900039C090E0A0E0B0E0282B392B4A2B5B2BF4
:1041A000A2E0220F331F441F551FAA95D1F72AC042
:1041B000829586958695837090E0A0E0B0E0282BEC
:1041C000392B4A2B5B2B2F5F3F4F4F4F5F4F1AC04E
:1041D000782F7370770F16C0881F8827881F782B59
:1041E0008F2F90E00296870F911D69017A0104C01C
:1041F000CC0CDD1CEE1CFF1C8A95D2F7C98ADA8A2A
:10420000EB8AFC8A6F5F623109F089CF289A81E0DE
:10421000DF91CF911F910F91FF90EF90DF90CF90A2
:1042200008952F923F924F925F926F927F928F925A
:104230009F92AF92BF92CF92DF92EF92FF920F9335
:104240001F93CF93DF934B015C012A013901332483
:104250003A9422242394A1C0E401D170CE01A0E0BD
:10426000B0E085017401E81AF90A0A0B1B0BC12C96
:10427000B2E0DB2ECC1ADD0A6C147D0408F4630175
:1042800080910D0490910E04A0910F04B091100440
:10429000E816F9060A071B07F9F00E94E7218823B0
:1042A00009F481C0209729F480E0C81682E0D8067E
:1042B00058F4C801B7014DE052E020E032E00E941E
:1042C0000122882309F46FC0E0920D04F0920E04DD
:1042D00000930F04109310048DE0481682E05806F6
:1042E00071F09E01235F3D4FC901B201A6010E94FA
:1042F000A224109211046C147D0409F452C0289871
:1043000088E1B801A7010E94911F882311F0289A23
:104310004AC08EEF8EBD0DB407FEFDCF8DB58F77F1
:104320008DBDEDE0F2E081918EBD0DB407FEFDCFB5
:104330008DB58F778DBD84E0ED30F807A1F73EBCD9
:104340000DB407FEFDCF8DB58F778DBD3EBC0DB48E
:1043500007FEFDCF8DB58F778DBD3EBC0DB407FE3A
:10436000FDCF8DB58F778DBD8EB58F3FB1F78EBDEB
:104370000DB407FEFDCF8DB58F778DBD8EB5289A14
:104380004C0C5D1CC601A0E0B0E0880E991EAA1E70
:10439000BB1E6C187D08209211046114710409F091
:1043A0005BCF81E001C080E0DF91CF911F910F9141
:1043B000FF90EF90DF90CF90BF90AF909F908F9045
:1043C0007F906F905F904F903F902F9008958091D5
:1043D0001104882311F081E0089560910D0470911B
:1043E0000E0480910F04909110044DE052E020E003
:1043F00032E00E941121882319F081E0809311049A
:1044000008953F924F925F926F927F928F929F9208
:10441000AF92BF92CF92DF92EF92FF920F931F93D2
:10442000CF93DF933B014C016A01290133243A9475
:104430008FC01FEFA12E11E0B12EA620B720C5011D
:10444000A0E0B0E084017301E81AF90A0A0B1B0B23
:10445000C0E0D2E0CA19DB094C165D0608F4E2019F
:1044600080910D0490910E04A0910F04B09110045E
:10447000E816F9060A071B0709F457C00E94E7214E
:10448000882309F46AC0289881E1B801A7010E9435
:10449000911F882319F0289A80E05FC03EBC0DB4BC
:1044A00007FEFDCF8DB58F778DBD8EB58E3FB1F7F1
:1044B000EDE0F2E03EBC0DB407FEFDCF8DB58F7789
:1044C0008DBD8EB5808384E0EC30F80711F0319615
:1044D000F1CFE0920D04F0920E0400930F041093BC
:1044E00010049501235F3D4FC601B901AE010E9442
:1044F000A2243EBC0DB407FEFDCF8DB58F778DBDD8
:104500008EB53EBC0DB407FEFDCF8DB58F778DBD4A
:104510008EB5289A3EBC0DB407FEFDCFCC0EDD1E35
:104520008DB58F778DBD8EB50AC09501235F3D4F48
:10453000C601B901AE010E94A224CC0EDD1E4C1AA8
:104540005D0ACE01A0E0B0E0680E791E8A1E9B1EB7
:104550004114510409F06DCF81E0DF91CF911F919B
:104560000F91FF90EF90DF90CF90BF90AF909F9012
:104570008F907F906F905F904F903F9008952F9213
:104580003F924F925F926F927F928F929F92AF92E3
:10459000BF92CF92DF92EF92FF920F931F93DF9320
:1045A000CF9300D000D0CDB7DEB74B015C013A010C
:1045B0003C832B832701DA82C98241155105A9F179
:1045C0002115310591F10217130778F1E114F10477
:1045D00061F119013094219431083394021B130BBB
:1045E0006901EE24FF24C501B401A3012B813C81A4
:1045F0000E9401228823C9F0C301B501A4012981C9
:104600003A81F2010995882391F0020D131D8B81E7
:104610009C81800F911F2B813C818217930738F07A
:104620008C0C9D1CAE1CBF1CDECF80E001C081E065
:104630000F900F900F900F90CF91DF911F910F91DE
:10464000FF90EF90DF90CF90BF90AF909F908F90B2
:104650007F906F905F904F903F902F9008950F93B1
:104660001F93CF93DF93229A219A209A2398289A16
:1046700083E58CBD8DB58E7F8DBD1092120490E0C8
:104680002FEF2EBD0DB407FEFDCF8DB58F778DBDFD
:104690008EB59F5F9A30A9F72898C0E0D0E080E0FF
:1046A00040E050E060E070E00E94911F182F8130E0
:1046B00039F081E0CF3FD80709F440C02196EFCF11
:1046C00087E340E050E060E070E00E94911F89E2E3
:1046D00040E050E060E070E00E94911F82FD02C067
:1046E0001093120480911204082F10E003701070D0
:1046F000C0E0D0E00115110549F087E340E050E04B
:1047000060E070E00E94911F89E201C081E040E01A
:1047100050E060E070E00E94911F80FF06C08FE7CC
:10472000CF3FD80759F02196E5CF80E140E052E035
:1047300060E070E00E94911F882319F0289A80E0C1
:1047400022C0289A8CB58C7F8CBD8DB581608DBDC3
:104750008FEF9FEFAFEFBFEF80930D0490930E04A8
:10476000A0930F04B093100481E08093110460E0E3
:1047700070E080E090E04DE052E020E032E00E9406
:104780000122811181E0DF91CF911F910F91089556
:104790004F925F926F927F928F929F92AF92BF9251
:1047A000CF92DF92EF92FF920F931F93CF93DF93FD
:1047B0005B016C014A01E9013801270141155105EE
:1047C00071F10115110559F1FF242115310511F57C
:1047D000FF24F3941FC0C401B601A5019201F301A7
:1047E00009958C010097E9F0FF2019F4C817D90743
:1047F000B0F0C601B501A40198010E9411218823DF
:1048000071F0C801A0E0B0E0A80EB91ECA1EDB1E00
:10481000C01BD10BFF20F9F62097E9F602C080E01B
:1048200001C081E0DF91CF911F910F91FF90EF9038
:10483000DF90CF90BF90AF909F908F907F906F90C0
:104840005F904F900895629FD001739FF001829F07
:10485000E00DF11D649FE00DF11D929FF00D839F0F
:10486000F00D749FF00D659FF00D9927729FB00DAC
:10487000E11DF91F639FB00DE11DF91FBD01CF01BF
:1048800011240895AA1BBB1B51E107C0AA1FBB1F1F
:10489000A617B70710F0A61BB70B881F991F5A95CC
:1048A000A9F780959095BC01CD01089597FB092E3D
:1048B00007260AD077FD04D0E5DF06D000201AF4E1
:1048C000709561957F4F0895F6F7909581959F4F6C
:1048D0000895A1E21A2EAA1BBB1BFD010DC0AA1F41
:1048E000BB1FEE1FFF1FA217B307E407F50720F059
:1048F000A21BB30BE40BF50B661F771F881F991FD4
:104900001A9469F760957095809590959B01AC011C
:10491000BD01CF010895FB01DC018D910590801947
:104920000110D9F3990B0895FB01DC01415050406F
:1049300030F08D910590801919F40020B9F7881B8B
:10494000990B0895FB01DC0102C001900D924150CA
:104950005040D8F70895DC0101C06D93415050409C
:10496000E0F70895FC018191861721F08823D9F79B
:10497000992708953197CF010895FB01DC018D91AE
:10498000019080190110D9F3990B0895FB01DC0106
:104990004150504030F08D910190801919F4002061
:1049A000B9F7881B990B0895FB01DC014150504079
:1049B00048F001900D920020C9F701C01D924150AE
:1049C0005040E0F70895FC0181E090E00190061668
:1049D00009F4CF010020D1F701970895CF93DF9319
:1049E000EC014B8140FF1AC046FF0AC04F7B4B834E
:1049F0008E819F8101969F838E838A81282F2BC071
:104A000042FF13C0E881F9818081282F332727FDD9
:104A100030952115310529F440624B832FEF3FEF8C
:104A20001BC03196F983E88311C0EA85FB85CE016E
:104A300009959C0197FF0AC09B812F5F3F4F11F0A2
:104A400080E201C080E1892B8B83E8CF8E819F813A
:104A500001969F838E8330E0C901DF91CF91089545
:104A60000F931F93CF93DF938C01EB018B8181FF19
:104A70001BC082FF0DC02E813F818C819D81281734
:104A8000390764F4E881F9810193F983E88306C06A
:104A9000E885F985802F0995892B31F48E819F81D6
:104AA00001969F838E8302C00FEF1FEFC801DF9135
:104AB000CF911F910F910895A0E0B0E0E2E6F5E2FA
:104AC0000C94E327FE01359661917191A0916408E1
:104AD000B091650813968C911397886013968C9308
:104AE0008091640890916508AF010E948225E09151
:104AF0006408F09165082381277F23832096E2E0F4
:104B00000C94FF27ABE0B0E0E8E8F5E20C94D32783
:104B10003C012B015A01FC0117821682838181FD21
:104B200003C06FEF7FEFC6C19AE0892E1E01089483
:104B3000211C311CF3012381F20123FD859123FF08
:104B400081912F01882309F4B2C1853239F423FD04
:104B5000859123FF81912F01853229F490E0B301E3
:104B60000E943025E7CF982FFF24EE249924FFE1FF
:104B7000FF15D0F09B3269F09C3228F4903259F046
:104B8000933291F40EC09D3249F0903369F441E0C4
:104B900024C052E0F52A84E0F82A28C098E0F92AD7
:104BA00025C0E0E1FE2A22C0F7FC29C0892F8053EE
:104BB0008A3070F4F6FE05C0989C902C1124980E53
:104BC00015C0E89CE02C1124E80EF0E2FF2A0EC08C
:104BD0009E3229F4F6FC6BC140E4F42A07C09C36EF
:104BE00019F450E8F52A02C0983649F4F20123FD81
:104BF000959123FF91912F01992309F0B8CF892F27
:104C00008554833018F08052833038F444E050E00B
:104C1000A40EB51E5FE359830FC0933631F093376E
:104C200079F0933509F056C020C0F5018081898361
:104C300042E050E0A40EB51E610101E010E012C098
:104C4000F501C080D180F6FC03C06FEF7FEF02C09A
:104C5000692D70E042E050E0A40EB51EC6010E942E
:104C60006A278C015FE7F52214C0F501C080D1806E
:104C7000F6FC03C06FEF7FEF02C0692D70E042E0E9
:104C800050E0A40EB51EC6010E945F278C0150E8BB
:104C9000F52AF3FE07C01AC080E290E0B3010E943B
:104CA0003025EA948E2D90E008171907A8F30EC05E
:104CB000F601F7FC8591F7FE81916F0190E0B30159
:104CC0000E943025E110EA940150104001151105B1
:104CD00079F7EAC0943611F0993669F5F7FE08C005
:104CE000F501208131814281538184E090E00AC046
:104CF000F501808191819C01442737FD4095542F17
:104D000082E090E0A80EB91E9FE6F92257FF09C085
:104D100050954095309521953F4F4F4F5F4FE0E8BC
:104D2000FE2ACA01B901A1012AE030E00E947527DC
:104D3000D82ED21840C0953729F41F2D1F7E2AE0A7
:104D400030E01DC01F2D197F9F3661F0903720F491
:104D5000983509F0ACC00FC0903739F0983709F09A
:104D6000A6C004C028E030E00AC0106114FD146041
:104D700020E130E004C014FD166020E132E017FFAE
:104D800008C0F501608171818281938144E050E027
:104D900008C0F50180819181BC0180E090E042E093
:104DA00050E0A40EB51EA1010E947527D82ED2187E
:104DB0008FE7F82EF122F6FE0BC05EEFF522D91434
:104DC00038F4F4FE07C0F2FC05C08FEEF82202C0F2
:104DD0001D2D01C0192DF4FE0DC0FE01ED0DF11DBC
:104DE0008081803319F499EEF92208C01F5FF2FE2A
:104DF00005C003C08F2D867809F01F5F0F2DF3FCCF
:104E000014C0F0FE0FC01E1510F09D2C0BC09D2C81
:104E10009E0C911A1E2D06C080E290E0B3010E9404
:104E200030251F5F1E15C0F304C01E1510F4E11AD3
:104E300001C0EE2404FF0FC080E390E0B3010E94A4
:104E4000302502FF1DC001FD03C088E790E00EC0C1
:104E500088E590E00BC0802F867891F001FF02C0BA
:104E60008BE201C080E2F7FC8DE290E0B3010E948A
:104E7000302506C080E390E0B3010E9430259A946B
:104E8000D914C0F3DA94F101ED0DF11D808190E0A9
:104E9000B3010E943025DD20A9F706C080E290E032
:104EA000B3010E943025EA94EE20C1F743CEF3010E
:104EB00066817781CB012B96E2E10C94EF27FC0110
:104EC0000590615070400110D8F7809590958E0F35
:104ED0009F1F0895FC016150704001900110D8F7A8
:104EE000809590958E0F9F1F0895FA01AA2728306C
:104EF00051F1203181F1E8946F936E7F6E5F7F4FA7
:104F00008F4F9F4FAF4FB1E03ED0B4E03CD0670F22
:104F1000781F891F9A1FA11D680F791F8A1F911D75
:104F2000A11D6A0F711D811D911DA11D20D009F4C5
:104F300068943F912AE0269F11243019305D319307
:104F4000DEF6CF010895462F4770405D4193B3E0F0
:104F50000FD0C9F7F6CF462F4F70405D4A3318F097
:104F6000495D31FD4052419302D0A9F7EACFB4E048
:104F7000A6959795879577956795BA95C9F7009700
:104F80006105710508959B01AC010A2E06945795A1
:104F9000479537952795BA95C9F7620F731F841FF8
:104FA000951FA01D08952F923F924F925F926F928E
:104FB0007F928F929F92AF92BF92CF92DF92EF92A9
:104FC000FF920F931F93CF93DF93CDB7DEB7CA1B2A
:104FD000DB0B0FB6F894DEBF0FBECDBF09942A8855
:104FE000398848885F846E847D848C849B84AA84FD
:104FF000B984C884DF80EE80FD800C811B81AA818A
:10500000B981CE0FD11D0FB6F894DEBF0FBECDBF54
:08501000ED010895F894FFCFB3
:105018002F0052494646005741564500666D742098
:1050280000646174610000000003000000008D0B43
:10503800970B000001030507090E10121416181C1F
:025048001E0048
:00000001FF
